{
	"level1/project_train/Bank.sol": {
		"Bank": {
			"abi": [
				{
					"inputs": [],
					"stateMutability": "payable",
					"type": "constructor"
				},
				{
					"anonymous": false,
					"inputs": [
						{
							"indexed": false,
							"internalType": "address",
							"name": "ads",
							"type": "address"
						},
						{
							"indexed": false,
							"internalType": "uint256",
							"name": "ammount",
							"type": "uint256"
						}
					],
					"name": "Deopsit",
					"type": "event"
				},
				{
					"anonymous": false,
					"inputs": [
						{
							"indexed": false,
							"internalType": "uint256",
							"name": "amount",
							"type": "uint256"
						}
					],
					"name": "Withdraw",
					"type": "event"
				},
				{
					"inputs": [
						{
							"internalType": "address",
							"name": "",
							"type": "address"
						},
						{
							"internalType": "address",
							"name": "",
							"type": "address"
						}
					],
					"name": "balances",
					"outputs": [
						{
							"internalType": "uint256",
							"name": "",
							"type": "uint256"
						}
					],
					"stateMutability": "view",
					"type": "function"
				},
				{
					"inputs": [],
					"name": "deposit",
					"outputs": [],
					"stateMutability": "payable",
					"type": "function"
				},
				{
					"inputs": [
						{
							"internalType": "address",
							"name": "token",
							"type": "address"
						},
						{
							"internalType": "uint256",
							"name": "amount",
							"type": "uint256"
						}
					],
					"name": "depositERC20Token",
					"outputs": [],
					"stateMutability": "nonpayable",
					"type": "function"
				},
				{
					"inputs": [
						{
							"internalType": "address",
							"name": "token",
							"type": "address"
						},
						{
							"internalType": "uint256",
							"name": "amount",
							"type": "uint256"
						}
					],
					"name": "depositERC721Token",
					"outputs": [],
					"stateMutability": "nonpayable",
					"type": "function"
				},
				{
					"inputs": [],
					"name": "getBalance",
					"outputs": [
						{
							"internalType": "uint256",
							"name": "",
							"type": "uint256"
						}
					],
					"stateMutability": "view",
					"type": "function"
				},
				{
					"inputs": [],
					"name": "owner",
					"outputs": [
						{
							"internalType": "address",
							"name": "",
							"type": "address"
						}
					],
					"stateMutability": "view",
					"type": "function"
				},
				{
					"inputs": [
						{
							"internalType": "uint256",
							"name": "amount",
							"type": "uint256"
						}
					],
					"name": "withdraw",
					"outputs": [],
					"stateMutability": "nonpayable",
					"type": "function"
				},
				{
					"inputs": [
						{
							"internalType": "address",
							"name": "token",
							"type": "address"
						},
						{
							"internalType": "uint256",
							"name": "amount",
							"type": "uint256"
						}
					],
					"name": "withdrawERC20Token",
					"outputs": [],
					"stateMutability": "nonpayable",
					"type": "function"
				},
				{
					"inputs": [
						{
							"internalType": "address",
							"name": "token",
							"type": "address"
						},
						{
							"internalType": "uint256",
							"name": "amount",
							"type": "uint256"
						}
					],
					"name": "withdrawERC721Token",
					"outputs": [],
					"stateMutability": "nonpayable",
					"type": "function"
				},
				{
					"stateMutability": "payable",
					"type": "receive"
				}
			],
			"devdoc": {
				"kind": "dev",
				"methods": {},
				"version": 1
			},
			"evm": {
				"assembly": "    /* \"level1/project_train/Bank.sol\":179:2909  contract Bank {... */\n  mstore(0x40, 0xa0)\n    /* \"level1/project_train/Bank.sol\":566:576  msg.sender */\n  caller\n    /* \"level1/project_train/Bank.sol\":558:576  owner = msg.sender */\n  0xffffffffffffffffffffffffffffffffffffffff\n  and\n  0x80\n  dup2\n  0xffffffffffffffffffffffffffffffffffffffff\n  and\n  dup2\n  mstore\n  pop\n  pop\n    /* \"level1/project_train/Bank.sol\":179:2909  contract Bank {... */\n  mload(0x80)\n  codecopy(0x00, dataOffset(sub_0), dataSize(sub_0))\n  0x00\n  assignImmutable(\"0x8d87637f5be1d7a86cf9d9574df8f8a2209cc7688c4f7ae6e699189006019aa3\")\n  return(0x00, dataSize(sub_0))\nstop\n\nsub_0: assembly {\n        /* \"level1/project_train/Bank.sol\":179:2909  contract Bank {... */\n      mstore(0x40, 0x80)\n      jumpi(tag_1, lt(calldatasize, 0x04))\n      shr(0xe0, calldataload(0x00))\n      dup1\n      0x3aaed7b9\n      gt\n      tag_12\n      jumpi\n      dup1\n      0x3aaed7b9\n      eq\n      tag_7\n      jumpi\n      dup1\n      0x8da5cb5b\n      eq\n      tag_8\n      jumpi\n      dup1\n      0x928d81c1\n      eq\n      tag_9\n      jumpi\n      dup1\n      0xc23f001f\n      eq\n      tag_10\n      jumpi\n      dup1\n      0xd0e30db0\n      eq\n      tag_11\n      jumpi\n      jump(tag_2)\n    tag_12:\n      dup1\n      0x12065fe0\n      eq\n      tag_3\n      jumpi\n      dup1\n      0x2039d9fd\n      eq\n      tag_4\n      jumpi\n      dup1\n      0x28bedb51\n      eq\n      tag_5\n      jumpi\n      dup1\n      0x2e1a7d4d\n      eq\n      tag_6\n      jumpi\n      jump(tag_2)\n    tag_1:\n      jumpi(tag_2, calldatasize)\n        /* \"level1/project_train/Bank.sol\":479:509  Deopsit(msg.sender, msg.value) */\n      0x5ac89764e448864d40f43667a27dafa4b7ba1fadc9b1995f7a9ba1c86b2a8d9e\n        /* \"level1/project_train/Bank.sol\":487:497  msg.sender */\n      caller\n        /* \"level1/project_train/Bank.sol\":499:508  msg.value */\n      callvalue\n        /* \"level1/project_train/Bank.sol\":479:509  Deopsit(msg.sender, msg.value) */\n      mload(0x40)\n      tag_15\n      swap3\n      swap2\n      swap1\n      tag_16\n      jump\t// in\n    tag_15:\n      mload(0x40)\n      dup1\n      swap2\n      sub\n      swap1\n      log1\n        /* \"level1/project_train/Bank.sol\":179:2909  contract Bank {... */\n      stop\n    tag_2:\n      0x00\n      dup1\n      revert\n        /* \"level1/project_train/Bank.sol\":1006:1107  function getBalance() external view returns (uint256) {... */\n    tag_3:\n      callvalue\n      dup1\n      iszero\n      tag_17\n      jumpi\n      0x00\n      dup1\n      revert\n    tag_17:\n      pop\n      tag_18\n      tag_19\n      jump\t// in\n    tag_18:\n      mload(0x40)\n      tag_20\n      swap2\n      swap1\n      tag_21\n      jump\t// in\n    tag_20:\n      mload(0x40)\n      dup1\n      swap2\n      sub\n      swap1\n      return\n        /* \"level1/project_train/Bank.sol\":1150:1577  function depositERC20Token(address token, uint256 amount) external {... */\n    tag_4:\n      callvalue\n      dup1\n      iszero\n      tag_22\n      jumpi\n      0x00\n      dup1\n      revert\n    tag_22:\n      pop\n      tag_23\n      0x04\n      dup1\n      calldatasize\n      sub\n      dup2\n      add\n      swap1\n      tag_24\n      swap2\n      swap1\n      tag_25\n      jump\t// in\n    tag_24:\n      tag_26\n      jump\t// in\n    tag_23:\n      stop\n        /* \"level1/project_train/Bank.sol\":2054:2464  function depositERC721Token(address token, uint256 amount) external {... */\n    tag_5:\n      callvalue\n      dup1\n      iszero\n      tag_27\n      jumpi\n      0x00\n      dup1\n      revert\n    tag_27:\n      pop\n      tag_28\n      0x04\n      dup1\n      calldatasize\n      sub\n      dup2\n      add\n      swap1\n      tag_29\n      swap2\n      swap1\n      tag_25\n      jump\t// in\n    tag_29:\n      tag_30\n      jump\t// in\n    tag_28:\n      stop\n        /* \"level1/project_train/Bank.sol\":741:998  function withdraw(uint256 amount) external {... */\n    tag_6:\n      callvalue\n      dup1\n      iszero\n      tag_31\n      jumpi\n      0x00\n      dup1\n      revert\n    tag_31:\n      pop\n      tag_32\n      0x04\n      dup1\n      calldatasize\n      sub\n      dup2\n      add\n      swap1\n      tag_33\n      swap2\n      swap1\n      tag_34\n      jump\t// in\n    tag_33:\n      tag_35\n      jump\t// in\n    tag_32:\n      stop\n        /* \"level1/project_train/Bank.sol\":2498:2896  function withdrawERC721Token(address token, uint256 amount) external {... */\n    tag_7:\n      callvalue\n      dup1\n      iszero\n      tag_36\n      jumpi\n      0x00\n      dup1\n      revert\n    tag_36:\n      pop\n      tag_37\n      0x04\n      dup1\n      calldatasize\n      sub\n      dup2\n      add\n      swap1\n      tag_38\n      swap2\n      swap1\n      tag_25\n      jump\t// in\n    tag_38:\n      tag_39\n      jump\t// in\n    tag_37:\n      stop\n        /* \"level1/project_train/Bank.sol\":202:232  address public immutable owner */\n    tag_8:\n      callvalue\n      dup1\n      iszero\n      tag_40\n      jumpi\n      0x00\n      dup1\n      revert\n    tag_40:\n      pop\n      tag_41\n      tag_42\n      jump\t// in\n    tag_41:\n      mload(0x40)\n      tag_43\n      swap2\n      swap1\n      tag_44\n      jump\t// in\n    tag_43:\n      mload(0x40)\n      dup1\n      swap2\n      sub\n      swap1\n      return\n        /* \"level1/project_train/Bank.sol\":1610:2018  function withdrawERC20Token(address token, uint amount) external {... */\n    tag_9:\n      callvalue\n      dup1\n      iszero\n      tag_45\n      jumpi\n      0x00\n      dup1\n      revert\n    tag_45:\n      pop\n      tag_46\n      0x04\n      dup1\n      calldatasize\n      sub\n      dup2\n      add\n      swap1\n      tag_47\n      swap2\n      swap1\n      tag_25\n      jump\t// in\n    tag_47:\n      tag_48\n      jump\t// in\n    tag_46:\n      stop\n        /* \"level1/project_train/Bank.sol\":271:334  mapping(address => mapping(address => uint256)) public balances */\n    tag_10:\n      callvalue\n      dup1\n      iszero\n      tag_49\n      jumpi\n      0x00\n      dup1\n      revert\n    tag_49:\n      pop\n      tag_50\n      0x04\n      dup1\n      calldatasize\n      sub\n      dup2\n      add\n      swap1\n      tag_51\n      swap2\n      swap1\n      tag_52\n      jump\t// in\n    tag_51:\n      tag_53\n      jump\t// in\n    tag_50:\n      mload(0x40)\n      tag_54\n      swap2\n      swap1\n      tag_21\n      jump\t// in\n    tag_54:\n      mload(0x40)\n      dup1\n      swap2\n      sub\n      swap1\n      return\n        /* \"level1/project_train/Bank.sol\":592:733  function deposit() external payable  {... */\n    tag_11:\n      tag_55\n      tag_56\n      jump\t// in\n    tag_55:\n      stop\n        /* \"level1/project_train/Bank.sol\":1006:1107  function getBalance() external view returns (uint256) {... */\n    tag_19:\n        /* \"level1/project_train/Bank.sol\":1051:1058  uint256 */\n      0x00\n        /* \"level1/project_train/Bank.sol\":1078:1099  address(this).balance */\n      selfbalance\n        /* \"level1/project_train/Bank.sol\":1071:1099  return address(this).balance */\n      swap1\n      pop\n        /* \"level1/project_train/Bank.sol\":1006:1107  function getBalance() external view returns (uint256) {... */\n      swap1\n      jump\t// out\n        /* \"level1/project_train/Bank.sol\":1150:1577  function depositERC20Token(address token, uint256 amount) external {... */\n    tag_26:\n        /* \"level1/project_train/Bank.sol\":1253:1254  0 */\n      0x00\n        /* \"level1/project_train/Bank.sol\":1236:1255  token != address(0) */\n      0xffffffffffffffffffffffffffffffffffffffff\n      and\n        /* \"level1/project_train/Bank.sol\":1236:1241  token */\n      dup3\n        /* \"level1/project_train/Bank.sol\":1236:1255  token != address(0) */\n      0xffffffffffffffffffffffffffffffffffffffff\n      and\n      sub\n        /* \"level1/project_train/Bank.sol\":1228:1281  require(token != address(0), \"Invalid token address\") */\n      tag_59\n      jumpi\n      mload(0x40)\n      0x08c379a000000000000000000000000000000000000000000000000000000000\n      dup2\n      mstore\n      0x04\n      add\n      tag_60\n      swap1\n      tag_61\n      jump\t// in\n    tag_60:\n      mload(0x40)\n      dup1\n      swap2\n      sub\n      swap1\n      revert\n    tag_59:\n        /* \"level1/project_train/Bank.sol\":1309:1310  0 */\n      0x00\n        /* \"level1/project_train/Bank.sol\":1300:1306  amount */\n      dup2\n        /* \"level1/project_train/Bank.sol\":1300:1310  amount > 0 */\n      gt\n        /* \"level1/project_train/Bank.sol\":1292:1329  require(amount > 0, \"Invalid amount\") */\n      tag_62\n      jumpi\n      mload(0x40)\n      0x08c379a000000000000000000000000000000000000000000000000000000000\n      dup2\n      mstore\n      0x04\n      add\n      tag_63\n      swap1\n      tag_64\n      jump\t// in\n    tag_63:\n      mload(0x40)\n      dup1\n      swap2\n      sub\n      swap1\n      revert\n    tag_62:\n        /* \"level1/project_train/Bank.sol\":1340:1357  bool success_flag */\n      0x00\n        /* \"level1/project_train/Bank.sol\":1367:1372  token */\n      dup3\n        /* \"level1/project_train/Bank.sol\":1360:1386  IERC20(token).transferFrom */\n      0xffffffffffffffffffffffffffffffffffffffff\n      and\n      0x23b872dd\n        /* \"level1/project_train/Bank.sol\":1387:1397  msg.sender */\n      caller\n        /* \"level1/project_train/Bank.sol\":1407:1411  this */\n      address\n        /* \"level1/project_train/Bank.sol\":1414:1420  amount */\n      dup6\n        /* \"level1/project_train/Bank.sol\":1360:1421  IERC20(token).transferFrom(msg.sender, address(this), amount) */\n      mload(0x40)\n      dup5\n      0xffffffff\n      and\n      0xe0\n      shl\n      dup2\n      mstore\n      0x04\n      add\n      tag_65\n      swap4\n      swap3\n      swap2\n      swap1\n      tag_66\n      jump\t// in\n    tag_65:\n      0x20\n      mload(0x40)\n      dup1\n      dup4\n      sub\n      dup2\n      0x00\n      dup8\n      gas\n      call\n      iszero\n      dup1\n      iszero\n      tag_68\n      jumpi\n      returndatasize\n      0x00\n      dup1\n      returndatacopy\n      revert(0x00, returndatasize)\n    tag_68:\n      pop\n      pop\n      pop\n      pop\n      mload(0x40)\n      returndatasize\n      not(0x1f)\n      0x1f\n      dup3\n      add\n      and\n      dup3\n      add\n      dup1\n      0x40\n      mstore\n      pop\n      dup2\n      add\n      swap1\n      tag_69\n      swap2\n      swap1\n      tag_70\n      jump\t// in\n    tag_69:\n        /* \"level1/project_train/Bank.sol\":1340:1421  bool success_flag = IERC20(token).transferFrom(msg.sender, address(this), amount) */\n      swap1\n      pop\n        /* \"level1/project_train/Bank.sol\":1440:1452  success_flag */\n      dup1\n        /* \"level1/project_train/Bank.sol\":1432:1478  require(success_flag, \"Token transfer failed\") */\n      tag_71\n      jumpi\n      mload(0x40)\n      0x08c379a000000000000000000000000000000000000000000000000000000000\n      dup2\n      mstore\n      0x04\n      add\n      tag_72\n      swap1\n      tag_73\n      jump\t// in\n    tag_72:\n      mload(0x40)\n      dup1\n      swap2\n      sub\n      swap1\n      revert\n    tag_71:\n        /* \"level1/project_train/Bank.sol\":1520:1526  amount */\n      dup2\n        /* \"level1/project_train/Bank.sol\":1489:1497  balances */\n      0x00\n        /* \"level1/project_train/Bank.sol\":1489:1509  balances[msg.sender] */\n      dup1\n        /* \"level1/project_train/Bank.sol\":1498:1508  msg.sender */\n      caller\n        /* \"level1/project_train/Bank.sol\":1489:1509  balances[msg.sender] */\n      0xffffffffffffffffffffffffffffffffffffffff\n      and\n      0xffffffffffffffffffffffffffffffffffffffff\n      and\n      dup2\n      mstore\n      0x20\n      add\n      swap1\n      dup2\n      mstore\n      0x20\n      add\n      0x00\n      keccak256\n        /* \"level1/project_train/Bank.sol\":1489:1516  balances[msg.sender][token] */\n      0x00\n        /* \"level1/project_train/Bank.sol\":1510:1515  token */\n      dup6\n        /* \"level1/project_train/Bank.sol\":1489:1516  balances[msg.sender][token] */\n      0xffffffffffffffffffffffffffffffffffffffff\n      and\n      0xffffffffffffffffffffffffffffffffffffffff\n      and\n      dup2\n      mstore\n      0x20\n      add\n      swap1\n      dup2\n      mstore\n      0x20\n      add\n      0x00\n      keccak256\n      0x00\n        /* \"level1/project_train/Bank.sol\":1489:1526  balances[msg.sender][token] += amount */\n      dup3\n      dup3\n      sload\n      tag_74\n      swap2\n      swap1\n      tag_75\n      jump\t// in\n    tag_74:\n      swap3\n      pop\n      pop\n      dup2\n      swap1\n      sstore\n      pop\n        /* \"level1/project_train/Bank.sol\":1542:1569  Deopsit(msg.sender, amount) */\n      0x5ac89764e448864d40f43667a27dafa4b7ba1fadc9b1995f7a9ba1c86b2a8d9e\n        /* \"level1/project_train/Bank.sol\":1550:1560  msg.sender */\n      caller\n        /* \"level1/project_train/Bank.sol\":1562:1568  amount */\n      dup4\n        /* \"level1/project_train/Bank.sol\":1542:1569  Deopsit(msg.sender, amount) */\n      mload(0x40)\n      tag_76\n      swap3\n      swap2\n      swap1\n      tag_16\n      jump\t// in\n    tag_76:\n      mload(0x40)\n      dup1\n      swap2\n      sub\n      swap1\n      log1\n        /* \"level1/project_train/Bank.sol\":1217:1577  {... */\n      pop\n        /* \"level1/project_train/Bank.sol\":1150:1577  function depositERC20Token(address token, uint256 amount) external {... */\n      pop\n      pop\n      jump\t// out\n        /* \"level1/project_train/Bank.sol\":2054:2464  function depositERC721Token(address token, uint256 amount) external {... */\n    tag_30:\n        /* \"level1/project_train/Bank.sol\":2158:2159  0 */\n      0x00\n        /* \"level1/project_train/Bank.sol\":2141:2160  token != address(0) */\n      0xffffffffffffffffffffffffffffffffffffffff\n      and\n        /* \"level1/project_train/Bank.sol\":2141:2146  token */\n      dup3\n        /* \"level1/project_train/Bank.sol\":2141:2160  token != address(0) */\n      0xffffffffffffffffffffffffffffffffffffffff\n      and\n      sub\n        /* \"level1/project_train/Bank.sol\":2133:2186  require(token != address(0), \"Invalid token address\") */\n      tag_78\n      jumpi\n      mload(0x40)\n      0x08c379a000000000000000000000000000000000000000000000000000000000\n      dup2\n      mstore\n      0x04\n      add\n      tag_79\n      swap1\n      tag_61\n      jump\t// in\n    tag_79:\n      mload(0x40)\n      dup1\n      swap2\n      sub\n      swap1\n      revert\n    tag_78:\n        /* \"level1/project_train/Bank.sol\":2214:2215  0 */\n      0x00\n        /* \"level1/project_train/Bank.sol\":2205:2211  amount */\n      dup2\n        /* \"level1/project_train/Bank.sol\":2205:2215  amount > 0 */\n      gt\n        /* \"level1/project_train/Bank.sol\":2197:2234  require(amount > 0, \"Invalid amount\") */\n      tag_80\n      jumpi\n      mload(0x40)\n      0x08c379a000000000000000000000000000000000000000000000000000000000\n      dup2\n      mstore\n      0x04\n      add\n      tag_81\n      swap1\n      tag_64\n      jump\t// in\n    tag_81:\n      mload(0x40)\n      dup1\n      swap2\n      sub\n      swap1\n      revert\n    tag_80:\n        /* \"level1/project_train/Bank.sol\":2252:2257  token */\n      dup2\n        /* \"level1/project_train/Bank.sol\":2245:2271  ERC721(token).transferFrom */\n      0xffffffffffffffffffffffffffffffffffffffff\n      and\n      0x23b872dd\n        /* \"level1/project_train/Bank.sol\":2272:2282  msg.sender */\n      caller\n        /* \"level1/project_train/Bank.sol\":2292:2296  this */\n      address\n        /* \"level1/project_train/Bank.sol\":2299:2305  amount */\n      dup5\n        /* \"level1/project_train/Bank.sol\":2245:2306  ERC721(token).transferFrom(msg.sender, address(this), amount) */\n      mload(0x40)\n      dup5\n      0xffffffff\n      and\n      0xe0\n      shl\n      dup2\n      mstore\n      0x04\n      add\n      tag_82\n      swap4\n      swap3\n      swap2\n      swap1\n      tag_66\n      jump\t// in\n    tag_82:\n      0x00\n      mload(0x40)\n      dup1\n      dup4\n      sub\n      dup2\n      0x00\n      dup8\n      dup1\n      extcodesize\n      iszero\n      dup1\n      iszero\n      tag_83\n      jumpi\n      0x00\n      dup1\n      revert\n    tag_83:\n      pop\n      gas\n      call\n      iszero\n      dup1\n      iszero\n      tag_85\n      jumpi\n      returndatasize\n      0x00\n      dup1\n      returndatacopy\n      revert(0x00, returndatasize)\n    tag_85:\n      pop\n      pop\n      pop\n      pop\n        /* \"level1/project_train/Bank.sol\":2407:2413  amount */\n      dup1\n        /* \"level1/project_train/Bank.sol\":2376:2384  balances */\n      0x00\n        /* \"level1/project_train/Bank.sol\":2376:2396  balances[msg.sender] */\n      dup1\n        /* \"level1/project_train/Bank.sol\":2385:2395  msg.sender */\n      caller\n        /* \"level1/project_train/Bank.sol\":2376:2396  balances[msg.sender] */\n      0xffffffffffffffffffffffffffffffffffffffff\n      and\n      0xffffffffffffffffffffffffffffffffffffffff\n      and\n      dup2\n      mstore\n      0x20\n      add\n      swap1\n      dup2\n      mstore\n      0x20\n      add\n      0x00\n      keccak256\n        /* \"level1/project_train/Bank.sol\":2376:2403  balances[msg.sender][token] */\n      0x00\n        /* \"level1/project_train/Bank.sol\":2397:2402  token */\n      dup5\n        /* \"level1/project_train/Bank.sol\":2376:2403  balances[msg.sender][token] */\n      0xffffffffffffffffffffffffffffffffffffffff\n      and\n      0xffffffffffffffffffffffffffffffffffffffff\n      and\n      dup2\n      mstore\n      0x20\n      add\n      swap1\n      dup2\n      mstore\n      0x20\n      add\n      0x00\n      keccak256\n      0x00\n        /* \"level1/project_train/Bank.sol\":2376:2413  balances[msg.sender][token] += amount */\n      dup3\n      dup3\n      sload\n      tag_86\n      swap2\n      swap1\n      tag_75\n      jump\t// in\n    tag_86:\n      swap3\n      pop\n      pop\n      dup2\n      swap1\n      sstore\n      pop\n        /* \"level1/project_train/Bank.sol\":2429:2456  Deopsit(msg.sender, amount) */\n      0x5ac89764e448864d40f43667a27dafa4b7ba1fadc9b1995f7a9ba1c86b2a8d9e\n        /* \"level1/project_train/Bank.sol\":2437:2447  msg.sender */\n      caller\n        /* \"level1/project_train/Bank.sol\":2449:2455  amount */\n      dup3\n        /* \"level1/project_train/Bank.sol\":2429:2456  Deopsit(msg.sender, amount) */\n      mload(0x40)\n      tag_87\n      swap3\n      swap2\n      swap1\n      tag_16\n      jump\t// in\n    tag_87:\n      mload(0x40)\n      dup1\n      swap2\n      sub\n      swap1\n      log1\n        /* \"level1/project_train/Bank.sol\":2054:2464  function depositERC721Token(address token, uint256 amount) external {... */\n      pop\n      pop\n      jump\t// out\n        /* \"level1/project_train/Bank.sol\":741:998  function withdraw(uint256 amount) external {... */\n    tag_35:\n        /* \"level1/project_train/Bank.sol\":817:822  owner */\n      immutable(\"0x8d87637f5be1d7a86cf9d9574df8f8a2209cc7688c4f7ae6e699189006019aa3\")\n        /* \"level1/project_train/Bank.sol\":803:822  msg.sender == owner */\n      0xffffffffffffffffffffffffffffffffffffffff\n      and\n        /* \"level1/project_train/Bank.sol\":803:813  msg.sender */\n      caller\n        /* \"level1/project_train/Bank.sol\":803:822  msg.sender == owner */\n      0xffffffffffffffffffffffffffffffffffffffff\n      and\n      eq\n        /* \"level1/project_train/Bank.sol\":795:836  require(msg.sender == owner, \"Not Owner\") */\n      tag_89\n      jumpi\n      mload(0x40)\n      0x08c379a000000000000000000000000000000000000000000000000000000000\n      dup2\n      mstore\n      0x04\n      add\n      tag_90\n      swap1\n      tag_91\n      jump\t// in\n    tag_90:\n      mload(0x40)\n      dup1\n      swap2\n      sub\n      swap1\n      revert\n    tag_89:\n        /* \"level1/project_train/Bank.sol\":880:886  amount */\n      dup1\n        /* \"level1/project_train/Bank.sol\":855:876  address(this).balance */\n      selfbalance\n        /* \"level1/project_train/Bank.sol\":855:886  address(this).balance >= amount */\n      lt\n      iszero\n        /* \"level1/project_train/Bank.sol\":847:911  require(address(this).balance >= amount, \"insufficient balance\") */\n      tag_92\n      jumpi\n      mload(0x40)\n      0x08c379a000000000000000000000000000000000000000000000000000000000\n      dup2\n      mstore\n      0x04\n      add\n      tag_93\n      swap1\n      tag_94\n      jump\t// in\n    tag_93:\n      mload(0x40)\n      dup1\n      swap2\n      sub\n      swap1\n      revert\n    tag_92:\n        /* \"level1/project_train/Bank.sol\":930:940  msg.sender */\n      caller\n        /* \"level1/project_train/Bank.sol\":922:950  payable(msg.sender).transfer */\n      0xffffffffffffffffffffffffffffffffffffffff\n      and\n        /* \"level1/project_train/Bank.sol\":922:958  payable(msg.sender).transfer(amount) */\n      0x08fc\n        /* \"level1/project_train/Bank.sol\":951:957  amount */\n      dup3\n        /* \"level1/project_train/Bank.sol\":922:958  payable(msg.sender).transfer(amount) */\n      swap1\n      dup2\n      iszero\n      mul\n      swap1\n      mload(0x40)\n      0x00\n      mload(0x40)\n      dup1\n      dup4\n      sub\n      dup2\n      dup6\n      dup9\n      dup9\n      call\n      swap4\n      pop\n      pop\n      pop\n      pop\n      iszero\n      dup1\n      iszero\n      tag_96\n      jumpi\n      returndatasize\n      0x00\n      dup1\n      returndatacopy\n      revert(0x00, returndatasize)\n    tag_96:\n      pop\n        /* \"level1/project_train/Bank.sol\":974:990  Withdraw(amount) */\n      0x5b6b431d4476a211bb7d41c20d1aab9ae2321deee0d20be3d9fc9b1093fa6e3d\n        /* \"level1/project_train/Bank.sol\":983:989  amount */\n      dup2\n        /* \"level1/project_train/Bank.sol\":974:990  Withdraw(amount) */\n      mload(0x40)\n      tag_97\n      swap2\n      swap1\n      tag_21\n      jump\t// in\n    tag_97:\n      mload(0x40)\n      dup1\n      swap2\n      sub\n      swap1\n      log1\n        /* \"level1/project_train/Bank.sol\":741:998  function withdraw(uint256 amount) external {... */\n      pop\n      jump\t// out\n        /* \"level1/project_train/Bank.sol\":2498:2896  function withdrawERC721Token(address token, uint256 amount) external {... */\n    tag_39:\n        /* \"level1/project_train/Bank.sol\":2600:2605  owner */\n      immutable(\"0x8d87637f5be1d7a86cf9d9574df8f8a2209cc7688c4f7ae6e699189006019aa3\")\n        /* \"level1/project_train/Bank.sol\":2586:2605  msg.sender == owner */\n      0xffffffffffffffffffffffffffffffffffffffff\n      and\n        /* \"level1/project_train/Bank.sol\":2586:2596  msg.sender */\n      caller\n        /* \"level1/project_train/Bank.sol\":2586:2605  msg.sender == owner */\n      0xffffffffffffffffffffffffffffffffffffffff\n      and\n      eq\n        /* \"level1/project_train/Bank.sol\":2578:2633  require(msg.sender == owner, \"only owner can withdraw\") */\n      tag_99\n      jumpi\n      mload(0x40)\n      0x08c379a000000000000000000000000000000000000000000000000000000000\n      dup2\n      mstore\n      0x04\n      add\n      tag_100\n      swap1\n      tag_101\n      jump\t// in\n    tag_100:\n      mload(0x40)\n      dup1\n      swap2\n      sub\n      swap1\n      revert\n    tag_99:\n        /* \"level1/project_train/Bank.sol\":2677:2683  amount */\n      dup1\n        /* \"level1/project_train/Bank.sol\":2652:2673  address(this).balance */\n      selfbalance\n        /* \"level1/project_train/Bank.sol\":2652:2683  address(this).balance >= amount */\n      lt\n      iszero\n        /* \"level1/project_train/Bank.sol\":2644:2708  require(address(this).balance >= amount, \"insufficient balance\") */\n      tag_102\n      jumpi\n      mload(0x40)\n      0x08c379a000000000000000000000000000000000000000000000000000000000\n      dup2\n      mstore\n      0x04\n      add\n      tag_103\n      swap1\n      tag_94\n      jump\t// in\n    tag_103:\n      mload(0x40)\n      dup1\n      swap2\n      sub\n      swap1\n      revert\n    tag_102:\n        /* \"level1/project_train/Bank.sol\":2754:2759  token */\n      dup2\n        /* \"level1/project_train/Bank.sol\":2746:2773  IERC721(token).transferFrom */\n      0xffffffffffffffffffffffffffffffffffffffff\n      and\n      0x23b872dd\n        /* \"level1/project_train/Bank.sol\":2782:2786  this */\n      address\n        /* \"level1/project_train/Bank.sol\":2789:2799  msg.sender */\n      caller\n        /* \"level1/project_train/Bank.sol\":2801:2807  amount */\n      dup5\n        /* \"level1/project_train/Bank.sol\":2746:2808  IERC721(token).transferFrom(address(this), msg.sender, amount) */\n      mload(0x40)\n      dup5\n      0xffffffff\n      and\n      0xe0\n      shl\n      dup2\n      mstore\n      0x04\n      add\n      tag_104\n      swap4\n      swap3\n      swap2\n      swap1\n      tag_66\n      jump\t// in\n    tag_104:\n      0x00\n      mload(0x40)\n      dup1\n      dup4\n      sub\n      dup2\n      0x00\n      dup8\n      dup1\n      extcodesize\n      iszero\n      dup1\n      iszero\n      tag_105\n      jumpi\n      0x00\n      dup1\n      revert\n    tag_105:\n      pop\n      gas\n      call\n      iszero\n      dup1\n      iszero\n      tag_107\n      jumpi\n      returndatasize\n      0x00\n      dup1\n      returndatacopy\n      revert(0x00, returndatasize)\n    tag_107:\n      pop\n      pop\n      pop\n      pop\n        /* \"level1/project_train/Bank.sol\":2850:2856  amount */\n      dup1\n        /* \"level1/project_train/Bank.sol\":2819:2827  balances */\n      0x00\n        /* \"level1/project_train/Bank.sol\":2819:2839  balances[msg.sender] */\n      dup1\n        /* \"level1/project_train/Bank.sol\":2828:2838  msg.sender */\n      caller\n        /* \"level1/project_train/Bank.sol\":2819:2839  balances[msg.sender] */\n      0xffffffffffffffffffffffffffffffffffffffff\n      and\n      0xffffffffffffffffffffffffffffffffffffffff\n      and\n      dup2\n      mstore\n      0x20\n      add\n      swap1\n      dup2\n      mstore\n      0x20\n      add\n      0x00\n      keccak256\n        /* \"level1/project_train/Bank.sol\":2819:2846  balances[msg.sender][token] */\n      0x00\n        /* \"level1/project_train/Bank.sol\":2840:2845  token */\n      dup5\n        /* \"level1/project_train/Bank.sol\":2819:2846  balances[msg.sender][token] */\n      0xffffffffffffffffffffffffffffffffffffffff\n      and\n      0xffffffffffffffffffffffffffffffffffffffff\n      and\n      dup2\n      mstore\n      0x20\n      add\n      swap1\n      dup2\n      mstore\n      0x20\n      add\n      0x00\n      keccak256\n      0x00\n        /* \"level1/project_train/Bank.sol\":2819:2856  balances[msg.sender][token] -= amount */\n      dup3\n      dup3\n      sload\n      tag_108\n      swap2\n      swap1\n      tag_109\n      jump\t// in\n    tag_108:\n      swap3\n      pop\n      pop\n      dup2\n      swap1\n      sstore\n      pop\n        /* \"level1/project_train/Bank.sol\":2872:2888  Withdraw(amount) */\n      0x5b6b431d4476a211bb7d41c20d1aab9ae2321deee0d20be3d9fc9b1093fa6e3d\n        /* \"level1/project_train/Bank.sol\":2881:2887  amount */\n      dup2\n        /* \"level1/project_train/Bank.sol\":2872:2888  Withdraw(amount) */\n      mload(0x40)\n      tag_110\n      swap2\n      swap1\n      tag_21\n      jump\t// in\n    tag_110:\n      mload(0x40)\n      dup1\n      swap2\n      sub\n      swap1\n      log1\n        /* \"level1/project_train/Bank.sol\":2498:2896  function withdrawERC721Token(address token, uint256 amount) external {... */\n      pop\n      pop\n      jump\t// out\n        /* \"level1/project_train/Bank.sol\":202:232  address public immutable owner */\n    tag_42:\n      immutable(\"0x8d87637f5be1d7a86cf9d9574df8f8a2209cc7688c4f7ae6e699189006019aa3\")\n      dup2\n      jump\t// out\n        /* \"level1/project_train/Bank.sol\":1610:2018  function withdrawERC20Token(address token, uint amount) external {... */\n    tag_48:\n        /* \"level1/project_train/Bank.sol\":1708:1713  owner */\n      immutable(\"0x8d87637f5be1d7a86cf9d9574df8f8a2209cc7688c4f7ae6e699189006019aa3\")\n        /* \"level1/project_train/Bank.sol\":1694:1713  msg.sender == owner */\n      0xffffffffffffffffffffffffffffffffffffffff\n      and\n        /* \"level1/project_train/Bank.sol\":1694:1704  msg.sender */\n      caller\n        /* \"level1/project_train/Bank.sol\":1694:1713  msg.sender == owner */\n      0xffffffffffffffffffffffffffffffffffffffff\n      and\n      eq\n        /* \"level1/project_train/Bank.sol\":1686:1741  require(msg.sender == owner, \"only owner can withdraw\") */\n      tag_112\n      jumpi\n      mload(0x40)\n      0x08c379a000000000000000000000000000000000000000000000000000000000\n      dup2\n      mstore\n      0x04\n      add\n      tag_113\n      swap1\n      tag_101\n      jump\t// in\n    tag_113:\n      mload(0x40)\n      dup1\n      swap2\n      sub\n      swap1\n      revert\n    tag_112:\n        /* \"level1/project_train/Bank.sol\":1785:1791  amount */\n      dup1\n        /* \"level1/project_train/Bank.sol\":1760:1781  address(this).balance */\n      selfbalance\n        /* \"level1/project_train/Bank.sol\":1760:1791  address(this).balance >= amount */\n      lt\n      iszero\n        /* \"level1/project_train/Bank.sol\":1752:1816  require(address(this).balance >= amount, \"insufficient balance\") */\n      tag_114\n      jumpi\n      mload(0x40)\n      0x08c379a000000000000000000000000000000000000000000000000000000000\n      dup2\n      mstore\n      0x04\n      add\n      tag_115\n      swap1\n      tag_94\n      jump\t// in\n    tag_115:\n      mload(0x40)\n      dup1\n      swap2\n      sub\n      swap1\n      revert\n    tag_114:\n        /* \"level1/project_train/Bank.sol\":1827:1836  bool flag */\n      0x00\n        /* \"level1/project_train/Bank.sol\":1846:1851  token */\n      dup3\n        /* \"level1/project_train/Bank.sol\":1839:1861  IERC20(token).transfer */\n      0xffffffffffffffffffffffffffffffffffffffff\n      and\n      0xa9059cbb\n        /* \"level1/project_train/Bank.sol\":1862:1872  msg.sender */\n      caller\n        /* \"level1/project_train/Bank.sol\":1874:1880  amount */\n      dup5\n        /* \"level1/project_train/Bank.sol\":1839:1881  IERC20(token).transfer(msg.sender, amount) */\n      mload(0x40)\n      dup4\n      0xffffffff\n      and\n      0xe0\n      shl\n      dup2\n      mstore\n      0x04\n      add\n      tag_116\n      swap3\n      swap2\n      swap1\n      tag_16\n      jump\t// in\n    tag_116:\n      0x20\n      mload(0x40)\n      dup1\n      dup4\n      sub\n      dup2\n      0x00\n      dup8\n      gas\n      call\n      iszero\n      dup1\n      iszero\n      tag_118\n      jumpi\n      returndatasize\n      0x00\n      dup1\n      returndatacopy\n      revert(0x00, returndatasize)\n    tag_118:\n      pop\n      pop\n      pop\n      pop\n      mload(0x40)\n      returndatasize\n      not(0x1f)\n      0x1f\n      dup3\n      add\n      and\n      dup3\n      add\n      dup1\n      0x40\n      mstore\n      pop\n      dup2\n      add\n      swap1\n      tag_119\n      swap2\n      swap1\n      tag_70\n      jump\t// in\n    tag_119:\n        /* \"level1/project_train/Bank.sol\":1827:1881  bool flag = IERC20(token).transfer(msg.sender, amount) */\n      swap1\n      pop\n        /* \"level1/project_train/Bank.sol\":1900:1904  flag */\n      dup1\n        /* \"level1/project_train/Bank.sol\":1892:1930  require(flag, \"Token transfer failed\") */\n      tag_120\n      jumpi\n      mload(0x40)\n      0x08c379a000000000000000000000000000000000000000000000000000000000\n      dup2\n      mstore\n      0x04\n      add\n      tag_121\n      swap1\n      tag_73\n      jump\t// in\n    tag_121:\n      mload(0x40)\n      dup1\n      swap2\n      sub\n      swap1\n      revert\n    tag_120:\n        /* \"level1/project_train/Bank.sol\":1972:1978  amount */\n      dup2\n        /* \"level1/project_train/Bank.sol\":1941:1949  balances */\n      0x00\n        /* \"level1/project_train/Bank.sol\":1941:1961  balances[msg.sender] */\n      dup1\n        /* \"level1/project_train/Bank.sol\":1950:1960  msg.sender */\n      caller\n        /* \"level1/project_train/Bank.sol\":1941:1961  balances[msg.sender] */\n      0xffffffffffffffffffffffffffffffffffffffff\n      and\n      0xffffffffffffffffffffffffffffffffffffffff\n      and\n      dup2\n      mstore\n      0x20\n      add\n      swap1\n      dup2\n      mstore\n      0x20\n      add\n      0x00\n      keccak256\n        /* \"level1/project_train/Bank.sol\":1941:1968  balances[msg.sender][token] */\n      0x00\n        /* \"level1/project_train/Bank.sol\":1962:1967  token */\n      dup6\n        /* \"level1/project_train/Bank.sol\":1941:1968  balances[msg.sender][token] */\n      0xffffffffffffffffffffffffffffffffffffffff\n      and\n      0xffffffffffffffffffffffffffffffffffffffff\n      and\n      dup2\n      mstore\n      0x20\n      add\n      swap1\n      dup2\n      mstore\n      0x20\n      add\n      0x00\n      keccak256\n      0x00\n        /* \"level1/project_train/Bank.sol\":1941:1978  balances[msg.sender][token] -= amount */\n      dup3\n      dup3\n      sload\n      tag_122\n      swap2\n      swap1\n      tag_109\n      jump\t// in\n    tag_122:\n      swap3\n      pop\n      pop\n      dup2\n      swap1\n      sstore\n      pop\n        /* \"level1/project_train/Bank.sol\":1994:2010  Withdraw(amount) */\n      0x5b6b431d4476a211bb7d41c20d1aab9ae2321deee0d20be3d9fc9b1093fa6e3d\n        /* \"level1/project_train/Bank.sol\":2003:2009  amount */\n      dup3\n        /* \"level1/project_train/Bank.sol\":1994:2010  Withdraw(amount) */\n      mload(0x40)\n      tag_123\n      swap2\n      swap1\n      tag_21\n      jump\t// in\n    tag_123:\n      mload(0x40)\n      dup1\n      swap2\n      sub\n      swap1\n      log1\n        /* \"level1/project_train/Bank.sol\":1675:2018  {... */\n      pop\n        /* \"level1/project_train/Bank.sol\":1610:2018  function withdrawERC20Token(address token, uint amount) external {... */\n      pop\n      pop\n      jump\t// out\n        /* \"level1/project_train/Bank.sol\":271:334  mapping(address => mapping(address => uint256)) public balances */\n    tag_53:\n      mstore(0x20, 0x00)\n      dup2\n      0x00\n      mstore\n      mstore(0x20, keccak256(0x00, 0x40))\n      dup1\n      0x00\n      mstore\n      keccak256(0x00, 0x40)\n      0x00\n      swap2\n      pop\n      swap2\n      pop\n      pop\n      sload\n      dup2\n      jump\t// out\n        /* \"level1/project_train/Bank.sol\":592:733  function deposit() external payable  {... */\n    tag_56:\n        /* \"level1/project_train/Bank.sol\":695:725  Deopsit(msg.sender, msg.value) */\n      0x5ac89764e448864d40f43667a27dafa4b7ba1fadc9b1995f7a9ba1c86b2a8d9e\n        /* \"level1/project_train/Bank.sol\":703:713  msg.sender */\n      caller\n        /* \"level1/project_train/Bank.sol\":715:724  msg.value */\n      callvalue\n        /* \"level1/project_train/Bank.sol\":695:725  Deopsit(msg.sender, msg.value) */\n      mload(0x40)\n      tag_125\n      swap3\n      swap2\n      swap1\n      tag_16\n      jump\t// in\n    tag_125:\n      mload(0x40)\n      dup1\n      swap2\n      sub\n      swap1\n      log1\n        /* \"level1/project_train/Bank.sol\":592:733  function deposit() external payable  {... */\n      jump\t// out\n        /* \"#utility.yul\":7:133   */\n    tag_126:\n        /* \"#utility.yul\":44:51   */\n      0x00\n        /* \"#utility.yul\":84:126   */\n      0xffffffffffffffffffffffffffffffffffffffff\n        /* \"#utility.yul\":77:82   */\n      dup3\n        /* \"#utility.yul\":73:127   */\n      and\n        /* \"#utility.yul\":62:127   */\n      swap1\n      pop\n        /* \"#utility.yul\":7:133   */\n      swap2\n      swap1\n      pop\n      jump\t// out\n        /* \"#utility.yul\":139:235   */\n    tag_127:\n        /* \"#utility.yul\":176:183   */\n      0x00\n        /* \"#utility.yul\":205:229   */\n      tag_158\n        /* \"#utility.yul\":223:228   */\n      dup3\n        /* \"#utility.yul\":205:229   */\n      tag_126\n      jump\t// in\n    tag_158:\n        /* \"#utility.yul\":194:229   */\n      swap1\n      pop\n        /* \"#utility.yul\":139:235   */\n      swap2\n      swap1\n      pop\n      jump\t// out\n        /* \"#utility.yul\":241:359   */\n    tag_128:\n        /* \"#utility.yul\":328:352   */\n      tag_160\n        /* \"#utility.yul\":346:351   */\n      dup2\n        /* \"#utility.yul\":328:352   */\n      tag_127\n      jump\t// in\n    tag_160:\n        /* \"#utility.yul\":323:326   */\n      dup3\n        /* \"#utility.yul\":316:353   */\n      mstore\n        /* \"#utility.yul\":241:359   */\n      pop\n      pop\n      jump\t// out\n        /* \"#utility.yul\":365:442   */\n    tag_129:\n        /* \"#utility.yul\":402:409   */\n      0x00\n        /* \"#utility.yul\":431:436   */\n      dup2\n        /* \"#utility.yul\":420:436   */\n      swap1\n      pop\n        /* \"#utility.yul\":365:442   */\n      swap2\n      swap1\n      pop\n      jump\t// out\n        /* \"#utility.yul\":448:566   */\n    tag_130:\n        /* \"#utility.yul\":535:559   */\n      tag_163\n        /* \"#utility.yul\":553:558   */\n      dup2\n        /* \"#utility.yul\":535:559   */\n      tag_129\n      jump\t// in\n    tag_163:\n        /* \"#utility.yul\":530:533   */\n      dup3\n        /* \"#utility.yul\":523:560   */\n      mstore\n        /* \"#utility.yul\":448:566   */\n      pop\n      pop\n      jump\t// out\n        /* \"#utility.yul\":572:904   */\n    tag_16:\n        /* \"#utility.yul\":693:697   */\n      0x00\n        /* \"#utility.yul\":731:733   */\n      0x40\n        /* \"#utility.yul\":720:729   */\n      dup3\n        /* \"#utility.yul\":716:734   */\n      add\n        /* \"#utility.yul\":708:734   */\n      swap1\n      pop\n        /* \"#utility.yul\":744:815   */\n      tag_165\n        /* \"#utility.yul\":812:813   */\n      0x00\n        /* \"#utility.yul\":801:810   */\n      dup4\n        /* \"#utility.yul\":797:814   */\n      add\n        /* \"#utility.yul\":788:794   */\n      dup6\n        /* \"#utility.yul\":744:815   */\n      tag_128\n      jump\t// in\n    tag_165:\n        /* \"#utility.yul\":825:897   */\n      tag_166\n        /* \"#utility.yul\":893:895   */\n      0x20\n        /* \"#utility.yul\":882:891   */\n      dup4\n        /* \"#utility.yul\":878:896   */\n      add\n        /* \"#utility.yul\":869:875   */\n      dup5\n        /* \"#utility.yul\":825:897   */\n      tag_130\n      jump\t// in\n    tag_166:\n        /* \"#utility.yul\":572:904   */\n      swap4\n      swap3\n      pop\n      pop\n      pop\n      jump\t// out\n        /* \"#utility.yul\":910:1132   */\n    tag_21:\n        /* \"#utility.yul\":1003:1007   */\n      0x00\n        /* \"#utility.yul\":1041:1043   */\n      0x20\n        /* \"#utility.yul\":1030:1039   */\n      dup3\n        /* \"#utility.yul\":1026:1044   */\n      add\n        /* \"#utility.yul\":1018:1044   */\n      swap1\n      pop\n        /* \"#utility.yul\":1054:1125   */\n      tag_168\n        /* \"#utility.yul\":1122:1123   */\n      0x00\n        /* \"#utility.yul\":1111:1120   */\n      dup4\n        /* \"#utility.yul\":1107:1124   */\n      add\n        /* \"#utility.yul\":1098:1104   */\n      dup5\n        /* \"#utility.yul\":1054:1125   */\n      tag_130\n      jump\t// in\n    tag_168:\n        /* \"#utility.yul\":910:1132   */\n      swap3\n      swap2\n      pop\n      pop\n      jump\t// out\n        /* \"#utility.yul\":1219:1336   */\n    tag_132:\n        /* \"#utility.yul\":1328:1329   */\n      0x00\n        /* \"#utility.yul\":1325:1326   */\n      dup1\n        /* \"#utility.yul\":1318:1330   */\n      revert\n        /* \"#utility.yul\":1465:1587   */\n    tag_134:\n        /* \"#utility.yul\":1538:1562   */\n      tag_173\n        /* \"#utility.yul\":1556:1561   */\n      dup2\n        /* \"#utility.yul\":1538:1562   */\n      tag_127\n      jump\t// in\n    tag_173:\n        /* \"#utility.yul\":1531:1536   */\n      dup2\n        /* \"#utility.yul\":1528:1563   */\n      eq\n        /* \"#utility.yul\":1518:1581   */\n      tag_174\n      jumpi\n        /* \"#utility.yul\":1577:1578   */\n      0x00\n        /* \"#utility.yul\":1574:1575   */\n      dup1\n        /* \"#utility.yul\":1567:1579   */\n      revert\n        /* \"#utility.yul\":1518:1581   */\n    tag_174:\n        /* \"#utility.yul\":1465:1587   */\n      pop\n      jump\t// out\n        /* \"#utility.yul\":1593:1732   */\n    tag_135:\n        /* \"#utility.yul\":1639:1644   */\n      0x00\n        /* \"#utility.yul\":1677:1683   */\n      dup2\n        /* \"#utility.yul\":1664:1684   */\n      calldataload\n        /* \"#utility.yul\":1655:1684   */\n      swap1\n      pop\n        /* \"#utility.yul\":1693:1726   */\n      tag_176\n        /* \"#utility.yul\":1720:1725   */\n      dup2\n        /* \"#utility.yul\":1693:1726   */\n      tag_134\n      jump\t// in\n    tag_176:\n        /* \"#utility.yul\":1593:1732   */\n      swap3\n      swap2\n      pop\n      pop\n      jump\t// out\n        /* \"#utility.yul\":1738:1860   */\n    tag_136:\n        /* \"#utility.yul\":1811:1835   */\n      tag_178\n        /* \"#utility.yul\":1829:1834   */\n      dup2\n        /* \"#utility.yul\":1811:1835   */\n      tag_129\n      jump\t// in\n    tag_178:\n        /* \"#utility.yul\":1804:1809   */\n      dup2\n        /* \"#utility.yul\":1801:1836   */\n      eq\n        /* \"#utility.yul\":1791:1854   */\n      tag_179\n      jumpi\n        /* \"#utility.yul\":1850:1851   */\n      0x00\n        /* \"#utility.yul\":1847:1848   */\n      dup1\n        /* \"#utility.yul\":1840:1852   */\n      revert\n        /* \"#utility.yul\":1791:1854   */\n    tag_179:\n        /* \"#utility.yul\":1738:1860   */\n      pop\n      jump\t// out\n        /* \"#utility.yul\":1866:2005   */\n    tag_137:\n        /* \"#utility.yul\":1912:1917   */\n      0x00\n        /* \"#utility.yul\":1950:1956   */\n      dup2\n        /* \"#utility.yul\":1937:1957   */\n      calldataload\n        /* \"#utility.yul\":1928:1957   */\n      swap1\n      pop\n        /* \"#utility.yul\":1966:1999   */\n      tag_181\n        /* \"#utility.yul\":1993:1998   */\n      dup2\n        /* \"#utility.yul\":1966:1999   */\n      tag_136\n      jump\t// in\n    tag_181:\n        /* \"#utility.yul\":1866:2005   */\n      swap3\n      swap2\n      pop\n      pop\n      jump\t// out\n        /* \"#utility.yul\":2011:2485   */\n    tag_25:\n        /* \"#utility.yul\":2079:2085   */\n      0x00\n        /* \"#utility.yul\":2087:2093   */\n      dup1\n        /* \"#utility.yul\":2136:2138   */\n      0x40\n        /* \"#utility.yul\":2124:2133   */\n      dup4\n        /* \"#utility.yul\":2115:2122   */\n      dup6\n        /* \"#utility.yul\":2111:2134   */\n      sub\n        /* \"#utility.yul\":2107:2139   */\n      slt\n        /* \"#utility.yul\":2104:2223   */\n      iszero\n      tag_183\n      jumpi\n        /* \"#utility.yul\":2142:2221   */\n      tag_184\n      tag_132\n      jump\t// in\n    tag_184:\n        /* \"#utility.yul\":2104:2223   */\n    tag_183:\n        /* \"#utility.yul\":2262:2263   */\n      0x00\n        /* \"#utility.yul\":2287:2340   */\n      tag_185\n        /* \"#utility.yul\":2332:2339   */\n      dup6\n        /* \"#utility.yul\":2323:2329   */\n      dup3\n        /* \"#utility.yul\":2312:2321   */\n      dup7\n        /* \"#utility.yul\":2308:2330   */\n      add\n        /* \"#utility.yul\":2287:2340   */\n      tag_135\n      jump\t// in\n    tag_185:\n        /* \"#utility.yul\":2277:2340   */\n      swap3\n      pop\n        /* \"#utility.yul\":2233:2350   */\n      pop\n        /* \"#utility.yul\":2389:2391   */\n      0x20\n        /* \"#utility.yul\":2415:2468   */\n      tag_186\n        /* \"#utility.yul\":2460:2467   */\n      dup6\n        /* \"#utility.yul\":2451:2457   */\n      dup3\n        /* \"#utility.yul\":2440:2449   */\n      dup7\n        /* \"#utility.yul\":2436:2458   */\n      add\n        /* \"#utility.yul\":2415:2468   */\n      tag_137\n      jump\t// in\n    tag_186:\n        /* \"#utility.yul\":2405:2468   */\n      swap2\n      pop\n        /* \"#utility.yul\":2360:2478   */\n      pop\n        /* \"#utility.yul\":2011:2485   */\n      swap3\n      pop\n      swap3\n      swap1\n      pop\n      jump\t// out\n        /* \"#utility.yul\":2491:2820   */\n    tag_34:\n        /* \"#utility.yul\":2550:2556   */\n      0x00\n        /* \"#utility.yul\":2599:2601   */\n      0x20\n        /* \"#utility.yul\":2587:2596   */\n      dup3\n        /* \"#utility.yul\":2578:2585   */\n      dup5\n        /* \"#utility.yul\":2574:2597   */\n      sub\n        /* \"#utility.yul\":2570:2602   */\n      slt\n        /* \"#utility.yul\":2567:2686   */\n      iszero\n      tag_188\n      jumpi\n        /* \"#utility.yul\":2605:2684   */\n      tag_189\n      tag_132\n      jump\t// in\n    tag_189:\n        /* \"#utility.yul\":2567:2686   */\n    tag_188:\n        /* \"#utility.yul\":2725:2726   */\n      0x00\n        /* \"#utility.yul\":2750:2803   */\n      tag_190\n        /* \"#utility.yul\":2795:2802   */\n      dup5\n        /* \"#utility.yul\":2786:2792   */\n      dup3\n        /* \"#utility.yul\":2775:2784   */\n      dup6\n        /* \"#utility.yul\":2771:2793   */\n      add\n        /* \"#utility.yul\":2750:2803   */\n      tag_137\n      jump\t// in\n    tag_190:\n        /* \"#utility.yul\":2740:2803   */\n      swap2\n      pop\n        /* \"#utility.yul\":2696:2813   */\n      pop\n        /* \"#utility.yul\":2491:2820   */\n      swap3\n      swap2\n      pop\n      pop\n      jump\t// out\n        /* \"#utility.yul\":2826:3048   */\n    tag_44:\n        /* \"#utility.yul\":2919:2923   */\n      0x00\n        /* \"#utility.yul\":2957:2959   */\n      0x20\n        /* \"#utility.yul\":2946:2955   */\n      dup3\n        /* \"#utility.yul\":2942:2960   */\n      add\n        /* \"#utility.yul\":2934:2960   */\n      swap1\n      pop\n        /* \"#utility.yul\":2970:3041   */\n      tag_192\n        /* \"#utility.yul\":3038:3039   */\n      0x00\n        /* \"#utility.yul\":3027:3036   */\n      dup4\n        /* \"#utility.yul\":3023:3040   */\n      add\n        /* \"#utility.yul\":3014:3020   */\n      dup5\n        /* \"#utility.yul\":2970:3041   */\n      tag_128\n      jump\t// in\n    tag_192:\n        /* \"#utility.yul\":2826:3048   */\n      swap3\n      swap2\n      pop\n      pop\n      jump\t// out\n        /* \"#utility.yul\":3054:3528   */\n    tag_52:\n        /* \"#utility.yul\":3122:3128   */\n      0x00\n        /* \"#utility.yul\":3130:3136   */\n      dup1\n        /* \"#utility.yul\":3179:3181   */\n      0x40\n        /* \"#utility.yul\":3167:3176   */\n      dup4\n        /* \"#utility.yul\":3158:3165   */\n      dup6\n        /* \"#utility.yul\":3154:3177   */\n      sub\n        /* \"#utility.yul\":3150:3182   */\n      slt\n        /* \"#utility.yul\":3147:3266   */\n      iszero\n      tag_194\n      jumpi\n        /* \"#utility.yul\":3185:3264   */\n      tag_195\n      tag_132\n      jump\t// in\n    tag_195:\n        /* \"#utility.yul\":3147:3266   */\n    tag_194:\n        /* \"#utility.yul\":3305:3306   */\n      0x00\n        /* \"#utility.yul\":3330:3383   */\n      tag_196\n        /* \"#utility.yul\":3375:3382   */\n      dup6\n        /* \"#utility.yul\":3366:3372   */\n      dup3\n        /* \"#utility.yul\":3355:3364   */\n      dup7\n        /* \"#utility.yul\":3351:3373   */\n      add\n        /* \"#utility.yul\":3330:3383   */\n      tag_135\n      jump\t// in\n    tag_196:\n        /* \"#utility.yul\":3320:3383   */\n      swap3\n      pop\n        /* \"#utility.yul\":3276:3393   */\n      pop\n        /* \"#utility.yul\":3432:3434   */\n      0x20\n        /* \"#utility.yul\":3458:3511   */\n      tag_197\n        /* \"#utility.yul\":3503:3510   */\n      dup6\n        /* \"#utility.yul\":3494:3500   */\n      dup3\n        /* \"#utility.yul\":3483:3492   */\n      dup7\n        /* \"#utility.yul\":3479:3501   */\n      add\n        /* \"#utility.yul\":3458:3511   */\n      tag_135\n      jump\t// in\n    tag_197:\n        /* \"#utility.yul\":3448:3511   */\n      swap2\n      pop\n        /* \"#utility.yul\":3403:3521   */\n      pop\n        /* \"#utility.yul\":3054:3528   */\n      swap3\n      pop\n      swap3\n      swap1\n      pop\n      jump\t// out\n        /* \"#utility.yul\":3534:3703   */\n    tag_138:\n        /* \"#utility.yul\":3618:3629   */\n      0x00\n        /* \"#utility.yul\":3652:3658   */\n      dup3\n        /* \"#utility.yul\":3647:3650   */\n      dup3\n        /* \"#utility.yul\":3640:3659   */\n      mstore\n        /* \"#utility.yul\":3692:3696   */\n      0x20\n        /* \"#utility.yul\":3687:3690   */\n      dup3\n        /* \"#utility.yul\":3683:3697   */\n      add\n        /* \"#utility.yul\":3668:3697   */\n      swap1\n      pop\n        /* \"#utility.yul\":3534:3703   */\n      swap3\n      swap2\n      pop\n      pop\n      jump\t// out\n        /* \"#utility.yul\":3709:3880   */\n    tag_139:\n        /* \"#utility.yul\":3849:3872   */\n      0x496e76616c696420746f6b656e20616464726573730000000000000000000000\n        /* \"#utility.yul\":3845:3846   */\n      0x00\n        /* \"#utility.yul\":3837:3843   */\n      dup3\n        /* \"#utility.yul\":3833:3847   */\n      add\n        /* \"#utility.yul\":3826:3873   */\n      mstore\n        /* \"#utility.yul\":3709:3880   */\n      pop\n      jump\t// out\n        /* \"#utility.yul\":3886:4252   */\n    tag_140:\n        /* \"#utility.yul\":4028:4031   */\n      0x00\n        /* \"#utility.yul\":4049:4116   */\n      tag_201\n        /* \"#utility.yul\":4113:4115   */\n      0x15\n        /* \"#utility.yul\":4108:4111   */\n      dup4\n        /* \"#utility.yul\":4049:4116   */\n      tag_138\n      jump\t// in\n    tag_201:\n        /* \"#utility.yul\":4042:4116   */\n      swap2\n      pop\n        /* \"#utility.yul\":4125:4218   */\n      tag_202\n        /* \"#utility.yul\":4214:4217   */\n      dup3\n        /* \"#utility.yul\":4125:4218   */\n      tag_139\n      jump\t// in\n    tag_202:\n        /* \"#utility.yul\":4243:4245   */\n      0x20\n        /* \"#utility.yul\":4238:4241   */\n      dup3\n        /* \"#utility.yul\":4234:4246   */\n      add\n        /* \"#utility.yul\":4227:4246   */\n      swap1\n      pop\n        /* \"#utility.yul\":3886:4252   */\n      swap2\n      swap1\n      pop\n      jump\t// out\n        /* \"#utility.yul\":4258:4677   */\n    tag_61:\n        /* \"#utility.yul\":4424:4428   */\n      0x00\n        /* \"#utility.yul\":4462:4464   */\n      0x20\n        /* \"#utility.yul\":4451:4460   */\n      dup3\n        /* \"#utility.yul\":4447:4465   */\n      add\n        /* \"#utility.yul\":4439:4465   */\n      swap1\n      pop\n        /* \"#utility.yul\":4511:4520   */\n      dup2\n        /* \"#utility.yul\":4505:4509   */\n      dup2\n        /* \"#utility.yul\":4501:4521   */\n      sub\n        /* \"#utility.yul\":4497:4498   */\n      0x00\n        /* \"#utility.yul\":4486:4495   */\n      dup4\n        /* \"#utility.yul\":4482:4499   */\n      add\n        /* \"#utility.yul\":4475:4522   */\n      mstore\n        /* \"#utility.yul\":4539:4670   */\n      tag_204\n        /* \"#utility.yul\":4665:4669   */\n      dup2\n        /* \"#utility.yul\":4539:4670   */\n      tag_140\n      jump\t// in\n    tag_204:\n        /* \"#utility.yul\":4531:4670   */\n      swap1\n      pop\n        /* \"#utility.yul\":4258:4677   */\n      swap2\n      swap1\n      pop\n      jump\t// out\n        /* \"#utility.yul\":4683:4847   */\n    tag_141:\n        /* \"#utility.yul\":4823:4839   */\n      0x496e76616c696420616d6f756e74000000000000000000000000000000000000\n        /* \"#utility.yul\":4819:4820   */\n      0x00\n        /* \"#utility.yul\":4811:4817   */\n      dup3\n        /* \"#utility.yul\":4807:4821   */\n      add\n        /* \"#utility.yul\":4800:4840   */\n      mstore\n        /* \"#utility.yul\":4683:4847   */\n      pop\n      jump\t// out\n        /* \"#utility.yul\":4853:5219   */\n    tag_142:\n        /* \"#utility.yul\":4995:4998   */\n      0x00\n        /* \"#utility.yul\":5016:5083   */\n      tag_207\n        /* \"#utility.yul\":5080:5082   */\n      0x0e\n        /* \"#utility.yul\":5075:5078   */\n      dup4\n        /* \"#utility.yul\":5016:5083   */\n      tag_138\n      jump\t// in\n    tag_207:\n        /* \"#utility.yul\":5009:5083   */\n      swap2\n      pop\n        /* \"#utility.yul\":5092:5185   */\n      tag_208\n        /* \"#utility.yul\":5181:5184   */\n      dup3\n        /* \"#utility.yul\":5092:5185   */\n      tag_141\n      jump\t// in\n    tag_208:\n        /* \"#utility.yul\":5210:5212   */\n      0x20\n        /* \"#utility.yul\":5205:5208   */\n      dup3\n        /* \"#utility.yul\":5201:5213   */\n      add\n        /* \"#utility.yul\":5194:5213   */\n      swap1\n      pop\n        /* \"#utility.yul\":4853:5219   */\n      swap2\n      swap1\n      pop\n      jump\t// out\n        /* \"#utility.yul\":5225:5644   */\n    tag_64:\n        /* \"#utility.yul\":5391:5395   */\n      0x00\n        /* \"#utility.yul\":5429:5431   */\n      0x20\n        /* \"#utility.yul\":5418:5427   */\n      dup3\n        /* \"#utility.yul\":5414:5432   */\n      add\n        /* \"#utility.yul\":5406:5432   */\n      swap1\n      pop\n        /* \"#utility.yul\":5478:5487   */\n      dup2\n        /* \"#utility.yul\":5472:5476   */\n      dup2\n        /* \"#utility.yul\":5468:5488   */\n      sub\n        /* \"#utility.yul\":5464:5465   */\n      0x00\n        /* \"#utility.yul\":5453:5462   */\n      dup4\n        /* \"#utility.yul\":5449:5466   */\n      add\n        /* \"#utility.yul\":5442:5489   */\n      mstore\n        /* \"#utility.yul\":5506:5637   */\n      tag_210\n        /* \"#utility.yul\":5632:5636   */\n      dup2\n        /* \"#utility.yul\":5506:5637   */\n      tag_142\n      jump\t// in\n    tag_210:\n        /* \"#utility.yul\":5498:5637   */\n      swap1\n      pop\n        /* \"#utility.yul\":5225:5644   */\n      swap2\n      swap1\n      pop\n      jump\t// out\n        /* \"#utility.yul\":5650:6092   */\n    tag_66:\n        /* \"#utility.yul\":5799:5803   */\n      0x00\n        /* \"#utility.yul\":5837:5839   */\n      0x60\n        /* \"#utility.yul\":5826:5835   */\n      dup3\n        /* \"#utility.yul\":5822:5840   */\n      add\n        /* \"#utility.yul\":5814:5840   */\n      swap1\n      pop\n        /* \"#utility.yul\":5850:5921   */\n      tag_212\n        /* \"#utility.yul\":5918:5919   */\n      0x00\n        /* \"#utility.yul\":5907:5916   */\n      dup4\n        /* \"#utility.yul\":5903:5920   */\n      add\n        /* \"#utility.yul\":5894:5900   */\n      dup7\n        /* \"#utility.yul\":5850:5921   */\n      tag_128\n      jump\t// in\n    tag_212:\n        /* \"#utility.yul\":5931:6003   */\n      tag_213\n        /* \"#utility.yul\":5999:6001   */\n      0x20\n        /* \"#utility.yul\":5988:5997   */\n      dup4\n        /* \"#utility.yul\":5984:6002   */\n      add\n        /* \"#utility.yul\":5975:5981   */\n      dup6\n        /* \"#utility.yul\":5931:6003   */\n      tag_128\n      jump\t// in\n    tag_213:\n        /* \"#utility.yul\":6013:6085   */\n      tag_214\n        /* \"#utility.yul\":6081:6083   */\n      0x40\n        /* \"#utility.yul\":6070:6079   */\n      dup4\n        /* \"#utility.yul\":6066:6084   */\n      add\n        /* \"#utility.yul\":6057:6063   */\n      dup5\n        /* \"#utility.yul\":6013:6085   */\n      tag_130\n      jump\t// in\n    tag_214:\n        /* \"#utility.yul\":5650:6092   */\n      swap5\n      swap4\n      pop\n      pop\n      pop\n      pop\n      jump\t// out\n        /* \"#utility.yul\":6098:6188   */\n    tag_143:\n        /* \"#utility.yul\":6132:6139   */\n      0x00\n        /* \"#utility.yul\":6175:6180   */\n      dup2\n        /* \"#utility.yul\":6168:6181   */\n      iszero\n        /* \"#utility.yul\":6161:6182   */\n      iszero\n        /* \"#utility.yul\":6150:6182   */\n      swap1\n      pop\n        /* \"#utility.yul\":6098:6188   */\n      swap2\n      swap1\n      pop\n      jump\t// out\n        /* \"#utility.yul\":6194:6310   */\n    tag_144:\n        /* \"#utility.yul\":6264:6285   */\n      tag_217\n        /* \"#utility.yul\":6279:6284   */\n      dup2\n        /* \"#utility.yul\":6264:6285   */\n      tag_143\n      jump\t// in\n    tag_217:\n        /* \"#utility.yul\":6257:6262   */\n      dup2\n        /* \"#utility.yul\":6254:6286   */\n      eq\n        /* \"#utility.yul\":6244:6304   */\n      tag_218\n      jumpi\n        /* \"#utility.yul\":6300:6301   */\n      0x00\n        /* \"#utility.yul\":6297:6298   */\n      dup1\n        /* \"#utility.yul\":6290:6302   */\n      revert\n        /* \"#utility.yul\":6244:6304   */\n    tag_218:\n        /* \"#utility.yul\":6194:6310   */\n      pop\n      jump\t// out\n        /* \"#utility.yul\":6316:6453   */\n    tag_145:\n        /* \"#utility.yul\":6370:6375   */\n      0x00\n        /* \"#utility.yul\":6401:6407   */\n      dup2\n        /* \"#utility.yul\":6395:6408   */\n      mload\n        /* \"#utility.yul\":6386:6408   */\n      swap1\n      pop\n        /* \"#utility.yul\":6417:6447   */\n      tag_220\n        /* \"#utility.yul\":6441:6446   */\n      dup2\n        /* \"#utility.yul\":6417:6447   */\n      tag_144\n      jump\t// in\n    tag_220:\n        /* \"#utility.yul\":6316:6453   */\n      swap3\n      swap2\n      pop\n      pop\n      jump\t// out\n        /* \"#utility.yul\":6459:6804   */\n    tag_70:\n        /* \"#utility.yul\":6526:6532   */\n      0x00\n        /* \"#utility.yul\":6575:6577   */\n      0x20\n        /* \"#utility.yul\":6563:6572   */\n      dup3\n        /* \"#utility.yul\":6554:6561   */\n      dup5\n        /* \"#utility.yul\":6550:6573   */\n      sub\n        /* \"#utility.yul\":6546:6578   */\n      slt\n        /* \"#utility.yul\":6543:6662   */\n      iszero\n      tag_222\n      jumpi\n        /* \"#utility.yul\":6581:6660   */\n      tag_223\n      tag_132\n      jump\t// in\n    tag_223:\n        /* \"#utility.yul\":6543:6662   */\n    tag_222:\n        /* \"#utility.yul\":6701:6702   */\n      0x00\n        /* \"#utility.yul\":6726:6787   */\n      tag_224\n        /* \"#utility.yul\":6779:6786   */\n      dup5\n        /* \"#utility.yul\":6770:6776   */\n      dup3\n        /* \"#utility.yul\":6759:6768   */\n      dup6\n        /* \"#utility.yul\":6755:6777   */\n      add\n        /* \"#utility.yul\":6726:6787   */\n      tag_145\n      jump\t// in\n    tag_224:\n        /* \"#utility.yul\":6716:6787   */\n      swap2\n      pop\n        /* \"#utility.yul\":6672:6797   */\n      pop\n        /* \"#utility.yul\":6459:6804   */\n      swap3\n      swap2\n      pop\n      pop\n      jump\t// out\n        /* \"#utility.yul\":6810:6981   */\n    tag_146:\n        /* \"#utility.yul\":6950:6973   */\n      0x546f6b656e207472616e73666572206661696c65640000000000000000000000\n        /* \"#utility.yul\":6946:6947   */\n      0x00\n        /* \"#utility.yul\":6938:6944   */\n      dup3\n        /* \"#utility.yul\":6934:6948   */\n      add\n        /* \"#utility.yul\":6927:6974   */\n      mstore\n        /* \"#utility.yul\":6810:6981   */\n      pop\n      jump\t// out\n        /* \"#utility.yul\":6987:7353   */\n    tag_147:\n        /* \"#utility.yul\":7129:7132   */\n      0x00\n        /* \"#utility.yul\":7150:7217   */\n      tag_227\n        /* \"#utility.yul\":7214:7216   */\n      0x15\n        /* \"#utility.yul\":7209:7212   */\n      dup4\n        /* \"#utility.yul\":7150:7217   */\n      tag_138\n      jump\t// in\n    tag_227:\n        /* \"#utility.yul\":7143:7217   */\n      swap2\n      pop\n        /* \"#utility.yul\":7226:7319   */\n      tag_228\n        /* \"#utility.yul\":7315:7318   */\n      dup3\n        /* \"#utility.yul\":7226:7319   */\n      tag_146\n      jump\t// in\n    tag_228:\n        /* \"#utility.yul\":7344:7346   */\n      0x20\n        /* \"#utility.yul\":7339:7342   */\n      dup3\n        /* \"#utility.yul\":7335:7347   */\n      add\n        /* \"#utility.yul\":7328:7347   */\n      swap1\n      pop\n        /* \"#utility.yul\":6987:7353   */\n      swap2\n      swap1\n      pop\n      jump\t// out\n        /* \"#utility.yul\":7359:7778   */\n    tag_73:\n        /* \"#utility.yul\":7525:7529   */\n      0x00\n        /* \"#utility.yul\":7563:7565   */\n      0x20\n        /* \"#utility.yul\":7552:7561   */\n      dup3\n        /* \"#utility.yul\":7548:7566   */\n      add\n        /* \"#utility.yul\":7540:7566   */\n      swap1\n      pop\n        /* \"#utility.yul\":7612:7621   */\n      dup2\n        /* \"#utility.yul\":7606:7610   */\n      dup2\n        /* \"#utility.yul\":7602:7622   */\n      sub\n        /* \"#utility.yul\":7598:7599   */\n      0x00\n        /* \"#utility.yul\":7587:7596   */\n      dup4\n        /* \"#utility.yul\":7583:7600   */\n      add\n        /* \"#utility.yul\":7576:7623   */\n      mstore\n        /* \"#utility.yul\":7640:7771   */\n      tag_230\n        /* \"#utility.yul\":7766:7770   */\n      dup2\n        /* \"#utility.yul\":7640:7771   */\n      tag_147\n      jump\t// in\n    tag_230:\n        /* \"#utility.yul\":7632:7771   */\n      swap1\n      pop\n        /* \"#utility.yul\":7359:7778   */\n      swap2\n      swap1\n      pop\n      jump\t// out\n        /* \"#utility.yul\":7784:7964   */\n    tag_148:\n        /* \"#utility.yul\":7832:7909   */\n      0x4e487b7100000000000000000000000000000000000000000000000000000000\n        /* \"#utility.yul\":7829:7830   */\n      0x00\n        /* \"#utility.yul\":7822:7910   */\n      mstore\n        /* \"#utility.yul\":7929:7933   */\n      0x11\n        /* \"#utility.yul\":7926:7927   */\n      0x04\n        /* \"#utility.yul\":7919:7934   */\n      mstore\n        /* \"#utility.yul\":7953:7957   */\n      0x24\n        /* \"#utility.yul\":7950:7951   */\n      0x00\n        /* \"#utility.yul\":7943:7958   */\n      revert\n        /* \"#utility.yul\":7970:8161   */\n    tag_75:\n        /* \"#utility.yul\":8010:8013   */\n      0x00\n        /* \"#utility.yul\":8029:8049   */\n      tag_233\n        /* \"#utility.yul\":8047:8048   */\n      dup3\n        /* \"#utility.yul\":8029:8049   */\n      tag_129\n      jump\t// in\n    tag_233:\n        /* \"#utility.yul\":8024:8049   */\n      swap2\n      pop\n        /* \"#utility.yul\":8063:8083   */\n      tag_234\n        /* \"#utility.yul\":8081:8082   */\n      dup4\n        /* \"#utility.yul\":8063:8083   */\n      tag_129\n      jump\t// in\n    tag_234:\n        /* \"#utility.yul\":8058:8083   */\n      swap3\n      pop\n        /* \"#utility.yul\":8106:8107   */\n      dup3\n        /* \"#utility.yul\":8103:8104   */\n      dup3\n        /* \"#utility.yul\":8099:8108   */\n      add\n        /* \"#utility.yul\":8092:8108   */\n      swap1\n      pop\n        /* \"#utility.yul\":8127:8130   */\n      dup1\n        /* \"#utility.yul\":8124:8125   */\n      dup3\n        /* \"#utility.yul\":8121:8131   */\n      gt\n        /* \"#utility.yul\":8118:8154   */\n      iszero\n      tag_235\n      jumpi\n        /* \"#utility.yul\":8134:8152   */\n      tag_236\n      tag_148\n      jump\t// in\n    tag_236:\n        /* \"#utility.yul\":8118:8154   */\n    tag_235:\n        /* \"#utility.yul\":7970:8161   */\n      swap3\n      swap2\n      pop\n      pop\n      jump\t// out\n        /* \"#utility.yul\":8167:8326   */\n    tag_149:\n        /* \"#utility.yul\":8307:8318   */\n      0x4e6f74204f776e65720000000000000000000000000000000000000000000000\n        /* \"#utility.yul\":8303:8304   */\n      0x00\n        /* \"#utility.yul\":8295:8301   */\n      dup3\n        /* \"#utility.yul\":8291:8305   */\n      add\n        /* \"#utility.yul\":8284:8319   */\n      mstore\n        /* \"#utility.yul\":8167:8326   */\n      pop\n      jump\t// out\n        /* \"#utility.yul\":8332:8697   */\n    tag_150:\n        /* \"#utility.yul\":8474:8477   */\n      0x00\n        /* \"#utility.yul\":8495:8561   */\n      tag_239\n        /* \"#utility.yul\":8559:8560   */\n      0x09\n        /* \"#utility.yul\":8554:8557   */\n      dup4\n        /* \"#utility.yul\":8495:8561   */\n      tag_138\n      jump\t// in\n    tag_239:\n        /* \"#utility.yul\":8488:8561   */\n      swap2\n      pop\n        /* \"#utility.yul\":8570:8663   */\n      tag_240\n        /* \"#utility.yul\":8659:8662   */\n      dup3\n        /* \"#utility.yul\":8570:8663   */\n      tag_149\n      jump\t// in\n    tag_240:\n        /* \"#utility.yul\":8688:8690   */\n      0x20\n        /* \"#utility.yul\":8683:8686   */\n      dup3\n        /* \"#utility.yul\":8679:8691   */\n      add\n        /* \"#utility.yul\":8672:8691   */\n      swap1\n      pop\n        /* \"#utility.yul\":8332:8697   */\n      swap2\n      swap1\n      pop\n      jump\t// out\n        /* \"#utility.yul\":8703:9122   */\n    tag_91:\n        /* \"#utility.yul\":8869:8873   */\n      0x00\n        /* \"#utility.yul\":8907:8909   */\n      0x20\n        /* \"#utility.yul\":8896:8905   */\n      dup3\n        /* \"#utility.yul\":8892:8910   */\n      add\n        /* \"#utility.yul\":8884:8910   */\n      swap1\n      pop\n        /* \"#utility.yul\":8956:8965   */\n      dup2\n        /* \"#utility.yul\":8950:8954   */\n      dup2\n        /* \"#utility.yul\":8946:8966   */\n      sub\n        /* \"#utility.yul\":8942:8943   */\n      0x00\n        /* \"#utility.yul\":8931:8940   */\n      dup4\n        /* \"#utility.yul\":8927:8944   */\n      add\n        /* \"#utility.yul\":8920:8967   */\n      mstore\n        /* \"#utility.yul\":8984:9115   */\n      tag_242\n        /* \"#utility.yul\":9110:9114   */\n      dup2\n        /* \"#utility.yul\":8984:9115   */\n      tag_150\n      jump\t// in\n    tag_242:\n        /* \"#utility.yul\":8976:9115   */\n      swap1\n      pop\n        /* \"#utility.yul\":8703:9122   */\n      swap2\n      swap1\n      pop\n      jump\t// out\n        /* \"#utility.yul\":9128:9298   */\n    tag_151:\n        /* \"#utility.yul\":9268:9290   */\n      0x696e73756666696369656e742062616c616e6365000000000000000000000000\n        /* \"#utility.yul\":9264:9265   */\n      0x00\n        /* \"#utility.yul\":9256:9262   */\n      dup3\n        /* \"#utility.yul\":9252:9266   */\n      add\n        /* \"#utility.yul\":9245:9291   */\n      mstore\n        /* \"#utility.yul\":9128:9298   */\n      pop\n      jump\t// out\n        /* \"#utility.yul\":9304:9670   */\n    tag_152:\n        /* \"#utility.yul\":9446:9449   */\n      0x00\n        /* \"#utility.yul\":9467:9534   */\n      tag_245\n        /* \"#utility.yul\":9531:9533   */\n      0x14\n        /* \"#utility.yul\":9526:9529   */\n      dup4\n        /* \"#utility.yul\":9467:9534   */\n      tag_138\n      jump\t// in\n    tag_245:\n        /* \"#utility.yul\":9460:9534   */\n      swap2\n      pop\n        /* \"#utility.yul\":9543:9636   */\n      tag_246\n        /* \"#utility.yul\":9632:9635   */\n      dup3\n        /* \"#utility.yul\":9543:9636   */\n      tag_151\n      jump\t// in\n    tag_246:\n        /* \"#utility.yul\":9661:9663   */\n      0x20\n        /* \"#utility.yul\":9656:9659   */\n      dup3\n        /* \"#utility.yul\":9652:9664   */\n      add\n        /* \"#utility.yul\":9645:9664   */\n      swap1\n      pop\n        /* \"#utility.yul\":9304:9670   */\n      swap2\n      swap1\n      pop\n      jump\t// out\n        /* \"#utility.yul\":9676:10095   */\n    tag_94:\n        /* \"#utility.yul\":9842:9846   */\n      0x00\n        /* \"#utility.yul\":9880:9882   */\n      0x20\n        /* \"#utility.yul\":9869:9878   */\n      dup3\n        /* \"#utility.yul\":9865:9883   */\n      add\n        /* \"#utility.yul\":9857:9883   */\n      swap1\n      pop\n        /* \"#utility.yul\":9929:9938   */\n      dup2\n        /* \"#utility.yul\":9923:9927   */\n      dup2\n        /* \"#utility.yul\":9919:9939   */\n      sub\n        /* \"#utility.yul\":9915:9916   */\n      0x00\n        /* \"#utility.yul\":9904:9913   */\n      dup4\n        /* \"#utility.yul\":9900:9917   */\n      add\n        /* \"#utility.yul\":9893:9940   */\n      mstore\n        /* \"#utility.yul\":9957:10088   */\n      tag_248\n        /* \"#utility.yul\":10083:10087   */\n      dup2\n        /* \"#utility.yul\":9957:10088   */\n      tag_152\n      jump\t// in\n    tag_248:\n        /* \"#utility.yul\":9949:10088   */\n      swap1\n      pop\n        /* \"#utility.yul\":9676:10095   */\n      swap2\n      swap1\n      pop\n      jump\t// out\n        /* \"#utility.yul\":10101:10274   */\n    tag_153:\n        /* \"#utility.yul\":10241:10266   */\n      0x6f6e6c79206f776e65722063616e207769746864726177000000000000000000\n        /* \"#utility.yul\":10237:10238   */\n      0x00\n        /* \"#utility.yul\":10229:10235   */\n      dup3\n        /* \"#utility.yul\":10225:10239   */\n      add\n        /* \"#utility.yul\":10218:10267   */\n      mstore\n        /* \"#utility.yul\":10101:10274   */\n      pop\n      jump\t// out\n        /* \"#utility.yul\":10280:10646   */\n    tag_154:\n        /* \"#utility.yul\":10422:10425   */\n      0x00\n        /* \"#utility.yul\":10443:10510   */\n      tag_251\n        /* \"#utility.yul\":10507:10509   */\n      0x17\n        /* \"#utility.yul\":10502:10505   */\n      dup4\n        /* \"#utility.yul\":10443:10510   */\n      tag_138\n      jump\t// in\n    tag_251:\n        /* \"#utility.yul\":10436:10510   */\n      swap2\n      pop\n        /* \"#utility.yul\":10519:10612   */\n      tag_252\n        /* \"#utility.yul\":10608:10611   */\n      dup3\n        /* \"#utility.yul\":10519:10612   */\n      tag_153\n      jump\t// in\n    tag_252:\n        /* \"#utility.yul\":10637:10639   */\n      0x20\n        /* \"#utility.yul\":10632:10635   */\n      dup3\n        /* \"#utility.yul\":10628:10640   */\n      add\n        /* \"#utility.yul\":10621:10640   */\n      swap1\n      pop\n        /* \"#utility.yul\":10280:10646   */\n      swap2\n      swap1\n      pop\n      jump\t// out\n        /* \"#utility.yul\":10652:11071   */\n    tag_101:\n        /* \"#utility.yul\":10818:10822   */\n      0x00\n        /* \"#utility.yul\":10856:10858   */\n      0x20\n        /* \"#utility.yul\":10845:10854   */\n      dup3\n        /* \"#utility.yul\":10841:10859   */\n      add\n        /* \"#utility.yul\":10833:10859   */\n      swap1\n      pop\n        /* \"#utility.yul\":10905:10914   */\n      dup2\n        /* \"#utility.yul\":10899:10903   */\n      dup2\n        /* \"#utility.yul\":10895:10915   */\n      sub\n        /* \"#utility.yul\":10891:10892   */\n      0x00\n        /* \"#utility.yul\":10880:10889   */\n      dup4\n        /* \"#utility.yul\":10876:10893   */\n      add\n        /* \"#utility.yul\":10869:10916   */\n      mstore\n        /* \"#utility.yul\":10933:11064   */\n      tag_254\n        /* \"#utility.yul\":11059:11063   */\n      dup2\n        /* \"#utility.yul\":10933:11064   */\n      tag_154\n      jump\t// in\n    tag_254:\n        /* \"#utility.yul\":10925:11064   */\n      swap1\n      pop\n        /* \"#utility.yul\":10652:11071   */\n      swap2\n      swap1\n      pop\n      jump\t// out\n        /* \"#utility.yul\":11077:11271   */\n    tag_109:\n        /* \"#utility.yul\":11117:11121   */\n      0x00\n        /* \"#utility.yul\":11137:11157   */\n      tag_256\n        /* \"#utility.yul\":11155:11156   */\n      dup3\n        /* \"#utility.yul\":11137:11157   */\n      tag_129\n      jump\t// in\n    tag_256:\n        /* \"#utility.yul\":11132:11157   */\n      swap2\n      pop\n        /* \"#utility.yul\":11171:11191   */\n      tag_257\n        /* \"#utility.yul\":11189:11190   */\n      dup4\n        /* \"#utility.yul\":11171:11191   */\n      tag_129\n      jump\t// in\n    tag_257:\n        /* \"#utility.yul\":11166:11191   */\n      swap3\n      pop\n        /* \"#utility.yul\":11215:11216   */\n      dup3\n        /* \"#utility.yul\":11212:11213   */\n      dup3\n        /* \"#utility.yul\":11208:11217   */\n      sub\n        /* \"#utility.yul\":11200:11217   */\n      swap1\n      pop\n        /* \"#utility.yul\":11239:11240   */\n      dup2\n        /* \"#utility.yul\":11233:11237   */\n      dup2\n        /* \"#utility.yul\":11230:11241   */\n      gt\n        /* \"#utility.yul\":11227:11264   */\n      iszero\n      tag_258\n      jumpi\n        /* \"#utility.yul\":11244:11262   */\n      tag_259\n      tag_148\n      jump\t// in\n    tag_259:\n        /* \"#utility.yul\":11227:11264   */\n    tag_258:\n        /* \"#utility.yul\":11077:11271   */\n      swap3\n      swap2\n      pop\n      pop\n      jump\t// out\n\n    auxdata: 0xa2646970667358221220b9e7207dafa8d3434dbf987764a8c48b4fafa608a2a77e6bdb875e84599ca59164736f6c634300081a0033\n}\n",
				"bytecode": {
					"linkReferences": {},
					"object": "60a06040523373ffffffffffffffffffffffffffffffffffffffff1660808173ffffffffffffffffffffffffffffffffffffffff168152505060805161120a6100655f395f8181610657015281816107a6015281816109a901526109cd015261120a5ff3fe608060405260043610610089575f3560e01c80633aaed7b9116100585780633aaed7b91461016f5780638da5cb5b14610197578063928d81c1146101c1578063c23f001f146101e9578063d0e30db014610225576100c9565b806312065fe0146100cd5780632039d9fd146100f757806328bedb511461011f5780632e1a7d4d14610147576100c9565b366100c9577f5ac89764e448864d40f43667a27dafa4b7ba1fadc9b1995f7a9ba1c86b2a8d9e33346040516100bf929190610cd4565b60405180910390a1005b5f80fd5b3480156100d8575f80fd5b506100e161022f565b6040516100ee9190610cfb565b60405180910390f35b348015610102575f80fd5b5061011d60048036038101906101189190610d6c565b610236565b005b34801561012a575f80fd5b5061014560048036038101906101409190610d6c565b610471565b005b348015610152575f80fd5b5061016d60048036038101906101689190610daa565b610655565b005b34801561017a575f80fd5b5061019560048036038101906101909190610d6c565b6107a4565b005b3480156101a2575f80fd5b506101ab6109a7565b6040516101b89190610dd5565b60405180910390f35b3480156101cc575f80fd5b506101e760048036038101906101e29190610d6c565b6109cb565b005b3480156101f4575f80fd5b5061020f600480360381019061020a9190610dee565b610c23565b60405161021c9190610cfb565b60405180910390f35b61022d610c42565b005b5f47905090565b5f73ffffffffffffffffffffffffffffffffffffffff168273ffffffffffffffffffffffffffffffffffffffff16036102a4576040517f08c379a000000000000000000000000000000000000000000000000000000000815260040161029b90610e86565b60405180910390fd5b5f81116102e6576040517f08c379a00000000000000000000000000000000000000000000000000000000081526004016102dd90610eee565b60405180910390fd5b5f8273ffffffffffffffffffffffffffffffffffffffff166323b872dd3330856040518463ffffffff1660e01b815260040161032493929190610f0c565b6020604051808303815f875af1158015610340573d5f803e3d5ffd5b505050506040513d601f19601f820116820180604052508101906103649190610f76565b9050806103a6576040517f08c379a000000000000000000000000000000000000000000000000000000000815260040161039d90610feb565b60405180910390fd5b815f803373ffffffffffffffffffffffffffffffffffffffff1673ffffffffffffffffffffffffffffffffffffffff1681526020019081526020015f205f8573ffffffffffffffffffffffffffffffffffffffff1673ffffffffffffffffffffffffffffffffffffffff1681526020019081526020015f205f82825461042c9190611036565b925050819055507f5ac89764e448864d40f43667a27dafa4b7ba1fadc9b1995f7a9ba1c86b2a8d9e3383604051610464929190610cd4565b60405180910390a1505050565b5f73ffffffffffffffffffffffffffffffffffffffff168273ffffffffffffffffffffffffffffffffffffffff16036104df576040517f08c379a00000000000000000000000000000000000000000000000000000000081526004016104d690610e86565b60405180910390fd5b5f8111610521576040517f08c379a000000000000000000000000000000000000000000000000000000000815260040161051890610eee565b60405180910390fd5b8173ffffffffffffffffffffffffffffffffffffffff166323b872dd3330846040518463ffffffff1660e01b815260040161055e93929190610f0c565b5f604051808303815f87803b158015610575575f80fd5b505af1158015610587573d5f803e3d5ffd5b50505050805f803373ffffffffffffffffffffffffffffffffffffffff1673ffffffffffffffffffffffffffffffffffffffff1681526020019081526020015f205f8473ffffffffffffffffffffffffffffffffffffffff1673ffffffffffffffffffffffffffffffffffffffff1681526020019081526020015f205f8282546106119190611036565b925050819055507f5ac89764e448864d40f43667a27dafa4b7ba1fadc9b1995f7a9ba1c86b2a8d9e3382604051610649929190610cd4565b60405180910390a15050565b7f000000000000000000000000000000000000000000000000000000000000000073ffffffffffffffffffffffffffffffffffffffff163373ffffffffffffffffffffffffffffffffffffffff16146106e3576040517f08c379a00000000000000000000000000000000000000000000000000000000081526004016106da906110b3565b60405180910390fd5b80471015610726576040517f08c379a000000000000000000000000000000000000000000000000000000000815260040161071d9061111b565b60405180910390fd5b3373ffffffffffffffffffffffffffffffffffffffff166108fc8290811502906040515f60405180830381858888f19350505050158015610769573d5f803e3d5ffd5b507f5b6b431d4476a211bb7d41c20d1aab9ae2321deee0d20be3d9fc9b1093fa6e3d816040516107999190610cfb565b60405180910390a150565b7f000000000000000000000000000000000000000000000000000000000000000073ffffffffffffffffffffffffffffffffffffffff163373ffffffffffffffffffffffffffffffffffffffff1614610832576040517f08c379a000000000000000000000000000000000000000000000000000000000815260040161082990611183565b60405180910390fd5b80471015610875576040517f08c379a000000000000000000000000000000000000000000000000000000000815260040161086c9061111b565b60405180910390fd5b8173ffffffffffffffffffffffffffffffffffffffff166323b872dd3033846040518463ffffffff1660e01b81526004016108b293929190610f0c565b5f604051808303815f87803b1580156108c9575f80fd5b505af11580156108db573d5f803e3d5ffd5b50505050805f803373ffffffffffffffffffffffffffffffffffffffff1673ffffffffffffffffffffffffffffffffffffffff1681526020019081526020015f205f8473ffffffffffffffffffffffffffffffffffffffff1673ffffffffffffffffffffffffffffffffffffffff1681526020019081526020015f205f82825461096591906111a1565b925050819055507f5b6b431d4476a211bb7d41c20d1aab9ae2321deee0d20be3d9fc9b1093fa6e3d8160405161099b9190610cfb565b60405180910390a15050565b7f000000000000000000000000000000000000000000000000000000000000000081565b7f000000000000000000000000000000000000000000000000000000000000000073ffffffffffffffffffffffffffffffffffffffff163373ffffffffffffffffffffffffffffffffffffffff1614610a59576040517f08c379a0000000000000000000000000000000000000000000000000000000008152600401610a5090611183565b60405180910390fd5b80471015610a9c576040517f08c379a0000000000000000000000000000000000000000000000000000000008152600401610a939061111b565b60405180910390fd5b5f8273ffffffffffffffffffffffffffffffffffffffff1663a9059cbb33846040518363ffffffff1660e01b8152600401610ad8929190610cd4565b6020604051808303815f875af1158015610af4573d5f803e3d5ffd5b505050506040513d601f19601f82011682018060405250810190610b189190610f76565b905080610b5a576040517f08c379a0000000000000000000000000000000000000000000000000000000008152600401610b5190610feb565b60405180910390fd5b815f803373ffffffffffffffffffffffffffffffffffffffff1673ffffffffffffffffffffffffffffffffffffffff1681526020019081526020015f205f8573ffffffffffffffffffffffffffffffffffffffff1673ffffffffffffffffffffffffffffffffffffffff1681526020019081526020015f205f828254610be091906111a1565b925050819055507f5b6b431d4476a211bb7d41c20d1aab9ae2321deee0d20be3d9fc9b1093fa6e3d82604051610c169190610cfb565b60405180910390a1505050565b5f602052815f5260405f20602052805f5260405f205f91509150505481565b7f5ac89764e448864d40f43667a27dafa4b7ba1fadc9b1995f7a9ba1c86b2a8d9e3334604051610c73929190610cd4565b60405180910390a1565b5f73ffffffffffffffffffffffffffffffffffffffff82169050919050565b5f610ca682610c7d565b9050919050565b610cb681610c9c565b82525050565b5f819050919050565b610cce81610cbc565b82525050565b5f604082019050610ce75f830185610cad565b610cf46020830184610cc5565b9392505050565b5f602082019050610d0e5f830184610cc5565b92915050565b5f80fd5b610d2181610c9c565b8114610d2b575f80fd5b50565b5f81359050610d3c81610d18565b92915050565b610d4b81610cbc565b8114610d55575f80fd5b50565b5f81359050610d6681610d42565b92915050565b5f8060408385031215610d8257610d81610d14565b5b5f610d8f85828601610d2e565b9250506020610da085828601610d58565b9150509250929050565b5f60208284031215610dbf57610dbe610d14565b5b5f610dcc84828501610d58565b91505092915050565b5f602082019050610de85f830184610cad565b92915050565b5f8060408385031215610e0457610e03610d14565b5b5f610e1185828601610d2e565b9250506020610e2285828601610d2e565b9150509250929050565b5f82825260208201905092915050565b7f496e76616c696420746f6b656e206164647265737300000000000000000000005f82015250565b5f610e70601583610e2c565b9150610e7b82610e3c565b602082019050919050565b5f6020820190508181035f830152610e9d81610e64565b9050919050565b7f496e76616c696420616d6f756e740000000000000000000000000000000000005f82015250565b5f610ed8600e83610e2c565b9150610ee382610ea4565b602082019050919050565b5f6020820190508181035f830152610f0581610ecc565b9050919050565b5f606082019050610f1f5f830186610cad565b610f2c6020830185610cad565b610f396040830184610cc5565b949350505050565b5f8115159050919050565b610f5581610f41565b8114610f5f575f80fd5b50565b5f81519050610f7081610f4c565b92915050565b5f60208284031215610f8b57610f8a610d14565b5b5f610f9884828501610f62565b91505092915050565b7f546f6b656e207472616e73666572206661696c656400000000000000000000005f82015250565b5f610fd5601583610e2c565b9150610fe082610fa1565b602082019050919050565b5f6020820190508181035f83015261100281610fc9565b9050919050565b7f4e487b71000000000000000000000000000000000000000000000000000000005f52601160045260245ffd5b5f61104082610cbc565b915061104b83610cbc565b925082820190508082111561106357611062611009565b5b92915050565b7f4e6f74204f776e657200000000000000000000000000000000000000000000005f82015250565b5f61109d600983610e2c565b91506110a882611069565b602082019050919050565b5f6020820190508181035f8301526110ca81611091565b9050919050565b7f696e73756666696369656e742062616c616e63650000000000000000000000005f82015250565b5f611105601483610e2c565b9150611110826110d1565b602082019050919050565b5f6020820190508181035f830152611132816110f9565b9050919050565b7f6f6e6c79206f776e65722063616e2077697468647261770000000000000000005f82015250565b5f61116d601783610e2c565b915061117882611139565b602082019050919050565b5f6020820190508181035f83015261119a81611161565b9050919050565b5f6111ab82610cbc565b91506111b683610cbc565b92508282039050818111156111ce576111cd611009565b5b9291505056fea2646970667358221220b9e7207dafa8d3434dbf987764a8c48b4fafa608a2a77e6bdb875e84599ca59164736f6c634300081a0033",
					"opcodes": "PUSH1 0xA0 PUSH1 0x40 MSTORE CALLER PUSH20 0xFFFFFFFFFFFFFFFFFFFFFFFFFFFFFFFFFFFFFFFF AND PUSH1 0x80 DUP2 PUSH20 0xFFFFFFFFFFFFFFFFFFFFFFFFFFFFFFFFFFFFFFFF AND DUP2 MSTORE POP POP PUSH1 0x80 MLOAD PUSH2 0x120A PUSH2 0x65 PUSH0 CODECOPY PUSH0 DUP2 DUP2 PUSH2 0x657 ADD MSTORE DUP2 DUP2 PUSH2 0x7A6 ADD MSTORE DUP2 DUP2 PUSH2 0x9A9 ADD MSTORE PUSH2 0x9CD ADD MSTORE PUSH2 0x120A PUSH0 RETURN INVALID PUSH1 0x80 PUSH1 0x40 MSTORE PUSH1 0x4 CALLDATASIZE LT PUSH2 0x89 JUMPI PUSH0 CALLDATALOAD PUSH1 0xE0 SHR DUP1 PUSH4 0x3AAED7B9 GT PUSH2 0x58 JUMPI DUP1 PUSH4 0x3AAED7B9 EQ PUSH2 0x16F JUMPI DUP1 PUSH4 0x8DA5CB5B EQ PUSH2 0x197 JUMPI DUP1 PUSH4 0x928D81C1 EQ PUSH2 0x1C1 JUMPI DUP1 PUSH4 0xC23F001F EQ PUSH2 0x1E9 JUMPI DUP1 PUSH4 0xD0E30DB0 EQ PUSH2 0x225 JUMPI PUSH2 0xC9 JUMP JUMPDEST DUP1 PUSH4 0x12065FE0 EQ PUSH2 0xCD JUMPI DUP1 PUSH4 0x2039D9FD EQ PUSH2 0xF7 JUMPI DUP1 PUSH4 0x28BEDB51 EQ PUSH2 0x11F JUMPI DUP1 PUSH4 0x2E1A7D4D EQ PUSH2 0x147 JUMPI PUSH2 0xC9 JUMP JUMPDEST CALLDATASIZE PUSH2 0xC9 JUMPI PUSH32 0x5AC89764E448864D40F43667A27DAFA4B7BA1FADC9B1995F7A9BA1C86B2A8D9E CALLER CALLVALUE PUSH1 0x40 MLOAD PUSH2 0xBF SWAP3 SWAP2 SWAP1 PUSH2 0xCD4 JUMP JUMPDEST PUSH1 0x40 MLOAD DUP1 SWAP2 SUB SWAP1 LOG1 STOP JUMPDEST PUSH0 DUP1 REVERT JUMPDEST CALLVALUE DUP1 ISZERO PUSH2 0xD8 JUMPI PUSH0 DUP1 REVERT JUMPDEST POP PUSH2 0xE1 PUSH2 0x22F JUMP JUMPDEST PUSH1 0x40 MLOAD PUSH2 0xEE SWAP2 SWAP1 PUSH2 0xCFB JUMP JUMPDEST PUSH1 0x40 MLOAD DUP1 SWAP2 SUB SWAP1 RETURN JUMPDEST CALLVALUE DUP1 ISZERO PUSH2 0x102 JUMPI PUSH0 DUP1 REVERT JUMPDEST POP PUSH2 0x11D PUSH1 0x4 DUP1 CALLDATASIZE SUB DUP2 ADD SWAP1 PUSH2 0x118 SWAP2 SWAP1 PUSH2 0xD6C JUMP JUMPDEST PUSH2 0x236 JUMP JUMPDEST STOP JUMPDEST CALLVALUE DUP1 ISZERO PUSH2 0x12A JUMPI PUSH0 DUP1 REVERT JUMPDEST POP PUSH2 0x145 PUSH1 0x4 DUP1 CALLDATASIZE SUB DUP2 ADD SWAP1 PUSH2 0x140 SWAP2 SWAP1 PUSH2 0xD6C JUMP JUMPDEST PUSH2 0x471 JUMP JUMPDEST STOP JUMPDEST CALLVALUE DUP1 ISZERO PUSH2 0x152 JUMPI PUSH0 DUP1 REVERT JUMPDEST POP PUSH2 0x16D PUSH1 0x4 DUP1 CALLDATASIZE SUB DUP2 ADD SWAP1 PUSH2 0x168 SWAP2 SWAP1 PUSH2 0xDAA JUMP JUMPDEST PUSH2 0x655 JUMP JUMPDEST STOP JUMPDEST CALLVALUE DUP1 ISZERO PUSH2 0x17A JUMPI PUSH0 DUP1 REVERT JUMPDEST POP PUSH2 0x195 PUSH1 0x4 DUP1 CALLDATASIZE SUB DUP2 ADD SWAP1 PUSH2 0x190 SWAP2 SWAP1 PUSH2 0xD6C JUMP JUMPDEST PUSH2 0x7A4 JUMP JUMPDEST STOP JUMPDEST CALLVALUE DUP1 ISZERO PUSH2 0x1A2 JUMPI PUSH0 DUP1 REVERT JUMPDEST POP PUSH2 0x1AB PUSH2 0x9A7 JUMP JUMPDEST PUSH1 0x40 MLOAD PUSH2 0x1B8 SWAP2 SWAP1 PUSH2 0xDD5 JUMP JUMPDEST PUSH1 0x40 MLOAD DUP1 SWAP2 SUB SWAP1 RETURN JUMPDEST CALLVALUE DUP1 ISZERO PUSH2 0x1CC JUMPI PUSH0 DUP1 REVERT JUMPDEST POP PUSH2 0x1E7 PUSH1 0x4 DUP1 CALLDATASIZE SUB DUP2 ADD SWAP1 PUSH2 0x1E2 SWAP2 SWAP1 PUSH2 0xD6C JUMP JUMPDEST PUSH2 0x9CB JUMP JUMPDEST STOP JUMPDEST CALLVALUE DUP1 ISZERO PUSH2 0x1F4 JUMPI PUSH0 DUP1 REVERT JUMPDEST POP PUSH2 0x20F PUSH1 0x4 DUP1 CALLDATASIZE SUB DUP2 ADD SWAP1 PUSH2 0x20A SWAP2 SWAP1 PUSH2 0xDEE JUMP JUMPDEST PUSH2 0xC23 JUMP JUMPDEST PUSH1 0x40 MLOAD PUSH2 0x21C SWAP2 SWAP1 PUSH2 0xCFB JUMP JUMPDEST PUSH1 0x40 MLOAD DUP1 SWAP2 SUB SWAP1 RETURN JUMPDEST PUSH2 0x22D PUSH2 0xC42 JUMP JUMPDEST STOP JUMPDEST PUSH0 SELFBALANCE SWAP1 POP SWAP1 JUMP JUMPDEST PUSH0 PUSH20 0xFFFFFFFFFFFFFFFFFFFFFFFFFFFFFFFFFFFFFFFF AND DUP3 PUSH20 0xFFFFFFFFFFFFFFFFFFFFFFFFFFFFFFFFFFFFFFFF AND SUB PUSH2 0x2A4 JUMPI PUSH1 0x40 MLOAD PUSH32 0x8C379A000000000000000000000000000000000000000000000000000000000 DUP2 MSTORE PUSH1 0x4 ADD PUSH2 0x29B SWAP1 PUSH2 0xE86 JUMP JUMPDEST PUSH1 0x40 MLOAD DUP1 SWAP2 SUB SWAP1 REVERT JUMPDEST PUSH0 DUP2 GT PUSH2 0x2E6 JUMPI PUSH1 0x40 MLOAD PUSH32 0x8C379A000000000000000000000000000000000000000000000000000000000 DUP2 MSTORE PUSH1 0x4 ADD PUSH2 0x2DD SWAP1 PUSH2 0xEEE JUMP JUMPDEST PUSH1 0x40 MLOAD DUP1 SWAP2 SUB SWAP1 REVERT JUMPDEST PUSH0 DUP3 PUSH20 0xFFFFFFFFFFFFFFFFFFFFFFFFFFFFFFFFFFFFFFFF AND PUSH4 0x23B872DD CALLER ADDRESS DUP6 PUSH1 0x40 MLOAD DUP5 PUSH4 0xFFFFFFFF AND PUSH1 0xE0 SHL DUP2 MSTORE PUSH1 0x4 ADD PUSH2 0x324 SWAP4 SWAP3 SWAP2 SWAP1 PUSH2 0xF0C JUMP JUMPDEST PUSH1 0x20 PUSH1 0x40 MLOAD DUP1 DUP4 SUB DUP2 PUSH0 DUP8 GAS CALL ISZERO DUP1 ISZERO PUSH2 0x340 JUMPI RETURNDATASIZE PUSH0 DUP1 RETURNDATACOPY RETURNDATASIZE PUSH0 REVERT JUMPDEST POP POP POP POP PUSH1 0x40 MLOAD RETURNDATASIZE PUSH1 0x1F NOT PUSH1 0x1F DUP3 ADD AND DUP3 ADD DUP1 PUSH1 0x40 MSTORE POP DUP2 ADD SWAP1 PUSH2 0x364 SWAP2 SWAP1 PUSH2 0xF76 JUMP JUMPDEST SWAP1 POP DUP1 PUSH2 0x3A6 JUMPI PUSH1 0x40 MLOAD PUSH32 0x8C379A000000000000000000000000000000000000000000000000000000000 DUP2 MSTORE PUSH1 0x4 ADD PUSH2 0x39D SWAP1 PUSH2 0xFEB JUMP JUMPDEST PUSH1 0x40 MLOAD DUP1 SWAP2 SUB SWAP1 REVERT JUMPDEST DUP2 PUSH0 DUP1 CALLER PUSH20 0xFFFFFFFFFFFFFFFFFFFFFFFFFFFFFFFFFFFFFFFF AND PUSH20 0xFFFFFFFFFFFFFFFFFFFFFFFFFFFFFFFFFFFFFFFF AND DUP2 MSTORE PUSH1 0x20 ADD SWAP1 DUP2 MSTORE PUSH1 0x20 ADD PUSH0 KECCAK256 PUSH0 DUP6 PUSH20 0xFFFFFFFFFFFFFFFFFFFFFFFFFFFFFFFFFFFFFFFF AND PUSH20 0xFFFFFFFFFFFFFFFFFFFFFFFFFFFFFFFFFFFFFFFF AND DUP2 MSTORE PUSH1 0x20 ADD SWAP1 DUP2 MSTORE PUSH1 0x20 ADD PUSH0 KECCAK256 PUSH0 DUP3 DUP3 SLOAD PUSH2 0x42C SWAP2 SWAP1 PUSH2 0x1036 JUMP JUMPDEST SWAP3 POP POP DUP2 SWAP1 SSTORE POP PUSH32 0x5AC89764E448864D40F43667A27DAFA4B7BA1FADC9B1995F7A9BA1C86B2A8D9E CALLER DUP4 PUSH1 0x40 MLOAD PUSH2 0x464 SWAP3 SWAP2 SWAP1 PUSH2 0xCD4 JUMP JUMPDEST PUSH1 0x40 MLOAD DUP1 SWAP2 SUB SWAP1 LOG1 POP POP POP JUMP JUMPDEST PUSH0 PUSH20 0xFFFFFFFFFFFFFFFFFFFFFFFFFFFFFFFFFFFFFFFF AND DUP3 PUSH20 0xFFFFFFFFFFFFFFFFFFFFFFFFFFFFFFFFFFFFFFFF AND SUB PUSH2 0x4DF JUMPI PUSH1 0x40 MLOAD PUSH32 0x8C379A000000000000000000000000000000000000000000000000000000000 DUP2 MSTORE PUSH1 0x4 ADD PUSH2 0x4D6 SWAP1 PUSH2 0xE86 JUMP JUMPDEST PUSH1 0x40 MLOAD DUP1 SWAP2 SUB SWAP1 REVERT JUMPDEST PUSH0 DUP2 GT PUSH2 0x521 JUMPI PUSH1 0x40 MLOAD PUSH32 0x8C379A000000000000000000000000000000000000000000000000000000000 DUP2 MSTORE PUSH1 0x4 ADD PUSH2 0x518 SWAP1 PUSH2 0xEEE JUMP JUMPDEST PUSH1 0x40 MLOAD DUP1 SWAP2 SUB SWAP1 REVERT JUMPDEST DUP2 PUSH20 0xFFFFFFFFFFFFFFFFFFFFFFFFFFFFFFFFFFFFFFFF AND PUSH4 0x23B872DD CALLER ADDRESS DUP5 PUSH1 0x40 MLOAD DUP5 PUSH4 0xFFFFFFFF AND PUSH1 0xE0 SHL DUP2 MSTORE PUSH1 0x4 ADD PUSH2 0x55E SWAP4 SWAP3 SWAP2 SWAP1 PUSH2 0xF0C JUMP JUMPDEST PUSH0 PUSH1 0x40 MLOAD DUP1 DUP4 SUB DUP2 PUSH0 DUP8 DUP1 EXTCODESIZE ISZERO DUP1 ISZERO PUSH2 0x575 JUMPI PUSH0 DUP1 REVERT JUMPDEST POP GAS CALL ISZERO DUP1 ISZERO PUSH2 0x587 JUMPI RETURNDATASIZE PUSH0 DUP1 RETURNDATACOPY RETURNDATASIZE PUSH0 REVERT JUMPDEST POP POP POP POP DUP1 PUSH0 DUP1 CALLER PUSH20 0xFFFFFFFFFFFFFFFFFFFFFFFFFFFFFFFFFFFFFFFF AND PUSH20 0xFFFFFFFFFFFFFFFFFFFFFFFFFFFFFFFFFFFFFFFF AND DUP2 MSTORE PUSH1 0x20 ADD SWAP1 DUP2 MSTORE PUSH1 0x20 ADD PUSH0 KECCAK256 PUSH0 DUP5 PUSH20 0xFFFFFFFFFFFFFFFFFFFFFFFFFFFFFFFFFFFFFFFF AND PUSH20 0xFFFFFFFFFFFFFFFFFFFFFFFFFFFFFFFFFFFFFFFF AND DUP2 MSTORE PUSH1 0x20 ADD SWAP1 DUP2 MSTORE PUSH1 0x20 ADD PUSH0 KECCAK256 PUSH0 DUP3 DUP3 SLOAD PUSH2 0x611 SWAP2 SWAP1 PUSH2 0x1036 JUMP JUMPDEST SWAP3 POP POP DUP2 SWAP1 SSTORE POP PUSH32 0x5AC89764E448864D40F43667A27DAFA4B7BA1FADC9B1995F7A9BA1C86B2A8D9E CALLER DUP3 PUSH1 0x40 MLOAD PUSH2 0x649 SWAP3 SWAP2 SWAP1 PUSH2 0xCD4 JUMP JUMPDEST PUSH1 0x40 MLOAD DUP1 SWAP2 SUB SWAP1 LOG1 POP POP JUMP JUMPDEST PUSH32 0x0 PUSH20 0xFFFFFFFFFFFFFFFFFFFFFFFFFFFFFFFFFFFFFFFF AND CALLER PUSH20 0xFFFFFFFFFFFFFFFFFFFFFFFFFFFFFFFFFFFFFFFF AND EQ PUSH2 0x6E3 JUMPI PUSH1 0x40 MLOAD PUSH32 0x8C379A000000000000000000000000000000000000000000000000000000000 DUP2 MSTORE PUSH1 0x4 ADD PUSH2 0x6DA SWAP1 PUSH2 0x10B3 JUMP JUMPDEST PUSH1 0x40 MLOAD DUP1 SWAP2 SUB SWAP1 REVERT JUMPDEST DUP1 SELFBALANCE LT ISZERO PUSH2 0x726 JUMPI PUSH1 0x40 MLOAD PUSH32 0x8C379A000000000000000000000000000000000000000000000000000000000 DUP2 MSTORE PUSH1 0x4 ADD PUSH2 0x71D SWAP1 PUSH2 0x111B JUMP JUMPDEST PUSH1 0x40 MLOAD DUP1 SWAP2 SUB SWAP1 REVERT JUMPDEST CALLER PUSH20 0xFFFFFFFFFFFFFFFFFFFFFFFFFFFFFFFFFFFFFFFF AND PUSH2 0x8FC DUP3 SWAP1 DUP2 ISZERO MUL SWAP1 PUSH1 0x40 MLOAD PUSH0 PUSH1 0x40 MLOAD DUP1 DUP4 SUB DUP2 DUP6 DUP9 DUP9 CALL SWAP4 POP POP POP POP ISZERO DUP1 ISZERO PUSH2 0x769 JUMPI RETURNDATASIZE PUSH0 DUP1 RETURNDATACOPY RETURNDATASIZE PUSH0 REVERT JUMPDEST POP PUSH32 0x5B6B431D4476A211BB7D41C20D1AAB9AE2321DEEE0D20BE3D9FC9B1093FA6E3D DUP2 PUSH1 0x40 MLOAD PUSH2 0x799 SWAP2 SWAP1 PUSH2 0xCFB JUMP JUMPDEST PUSH1 0x40 MLOAD DUP1 SWAP2 SUB SWAP1 LOG1 POP JUMP JUMPDEST PUSH32 0x0 PUSH20 0xFFFFFFFFFFFFFFFFFFFFFFFFFFFFFFFFFFFFFFFF AND CALLER PUSH20 0xFFFFFFFFFFFFFFFFFFFFFFFFFFFFFFFFFFFFFFFF AND EQ PUSH2 0x832 JUMPI PUSH1 0x40 MLOAD PUSH32 0x8C379A000000000000000000000000000000000000000000000000000000000 DUP2 MSTORE PUSH1 0x4 ADD PUSH2 0x829 SWAP1 PUSH2 0x1183 JUMP JUMPDEST PUSH1 0x40 MLOAD DUP1 SWAP2 SUB SWAP1 REVERT JUMPDEST DUP1 SELFBALANCE LT ISZERO PUSH2 0x875 JUMPI PUSH1 0x40 MLOAD PUSH32 0x8C379A000000000000000000000000000000000000000000000000000000000 DUP2 MSTORE PUSH1 0x4 ADD PUSH2 0x86C SWAP1 PUSH2 0x111B JUMP JUMPDEST PUSH1 0x40 MLOAD DUP1 SWAP2 SUB SWAP1 REVERT JUMPDEST DUP2 PUSH20 0xFFFFFFFFFFFFFFFFFFFFFFFFFFFFFFFFFFFFFFFF AND PUSH4 0x23B872DD ADDRESS CALLER DUP5 PUSH1 0x40 MLOAD DUP5 PUSH4 0xFFFFFFFF AND PUSH1 0xE0 SHL DUP2 MSTORE PUSH1 0x4 ADD PUSH2 0x8B2 SWAP4 SWAP3 SWAP2 SWAP1 PUSH2 0xF0C JUMP JUMPDEST PUSH0 PUSH1 0x40 MLOAD DUP1 DUP4 SUB DUP2 PUSH0 DUP8 DUP1 EXTCODESIZE ISZERO DUP1 ISZERO PUSH2 0x8C9 JUMPI PUSH0 DUP1 REVERT JUMPDEST POP GAS CALL ISZERO DUP1 ISZERO PUSH2 0x8DB JUMPI RETURNDATASIZE PUSH0 DUP1 RETURNDATACOPY RETURNDATASIZE PUSH0 REVERT JUMPDEST POP POP POP POP DUP1 PUSH0 DUP1 CALLER PUSH20 0xFFFFFFFFFFFFFFFFFFFFFFFFFFFFFFFFFFFFFFFF AND PUSH20 0xFFFFFFFFFFFFFFFFFFFFFFFFFFFFFFFFFFFFFFFF AND DUP2 MSTORE PUSH1 0x20 ADD SWAP1 DUP2 MSTORE PUSH1 0x20 ADD PUSH0 KECCAK256 PUSH0 DUP5 PUSH20 0xFFFFFFFFFFFFFFFFFFFFFFFFFFFFFFFFFFFFFFFF AND PUSH20 0xFFFFFFFFFFFFFFFFFFFFFFFFFFFFFFFFFFFFFFFF AND DUP2 MSTORE PUSH1 0x20 ADD SWAP1 DUP2 MSTORE PUSH1 0x20 ADD PUSH0 KECCAK256 PUSH0 DUP3 DUP3 SLOAD PUSH2 0x965 SWAP2 SWAP1 PUSH2 0x11A1 JUMP JUMPDEST SWAP3 POP POP DUP2 SWAP1 SSTORE POP PUSH32 0x5B6B431D4476A211BB7D41C20D1AAB9AE2321DEEE0D20BE3D9FC9B1093FA6E3D DUP2 PUSH1 0x40 MLOAD PUSH2 0x99B SWAP2 SWAP1 PUSH2 0xCFB JUMP JUMPDEST PUSH1 0x40 MLOAD DUP1 SWAP2 SUB SWAP1 LOG1 POP POP JUMP JUMPDEST PUSH32 0x0 DUP2 JUMP JUMPDEST PUSH32 0x0 PUSH20 0xFFFFFFFFFFFFFFFFFFFFFFFFFFFFFFFFFFFFFFFF AND CALLER PUSH20 0xFFFFFFFFFFFFFFFFFFFFFFFFFFFFFFFFFFFFFFFF AND EQ PUSH2 0xA59 JUMPI PUSH1 0x40 MLOAD PUSH32 0x8C379A000000000000000000000000000000000000000000000000000000000 DUP2 MSTORE PUSH1 0x4 ADD PUSH2 0xA50 SWAP1 PUSH2 0x1183 JUMP JUMPDEST PUSH1 0x40 MLOAD DUP1 SWAP2 SUB SWAP1 REVERT JUMPDEST DUP1 SELFBALANCE LT ISZERO PUSH2 0xA9C JUMPI PUSH1 0x40 MLOAD PUSH32 0x8C379A000000000000000000000000000000000000000000000000000000000 DUP2 MSTORE PUSH1 0x4 ADD PUSH2 0xA93 SWAP1 PUSH2 0x111B JUMP JUMPDEST PUSH1 0x40 MLOAD DUP1 SWAP2 SUB SWAP1 REVERT JUMPDEST PUSH0 DUP3 PUSH20 0xFFFFFFFFFFFFFFFFFFFFFFFFFFFFFFFFFFFFFFFF AND PUSH4 0xA9059CBB CALLER DUP5 PUSH1 0x40 MLOAD DUP4 PUSH4 0xFFFFFFFF AND PUSH1 0xE0 SHL DUP2 MSTORE PUSH1 0x4 ADD PUSH2 0xAD8 SWAP3 SWAP2 SWAP1 PUSH2 0xCD4 JUMP JUMPDEST PUSH1 0x20 PUSH1 0x40 MLOAD DUP1 DUP4 SUB DUP2 PUSH0 DUP8 GAS CALL ISZERO DUP1 ISZERO PUSH2 0xAF4 JUMPI RETURNDATASIZE PUSH0 DUP1 RETURNDATACOPY RETURNDATASIZE PUSH0 REVERT JUMPDEST POP POP POP POP PUSH1 0x40 MLOAD RETURNDATASIZE PUSH1 0x1F NOT PUSH1 0x1F DUP3 ADD AND DUP3 ADD DUP1 PUSH1 0x40 MSTORE POP DUP2 ADD SWAP1 PUSH2 0xB18 SWAP2 SWAP1 PUSH2 0xF76 JUMP JUMPDEST SWAP1 POP DUP1 PUSH2 0xB5A JUMPI PUSH1 0x40 MLOAD PUSH32 0x8C379A000000000000000000000000000000000000000000000000000000000 DUP2 MSTORE PUSH1 0x4 ADD PUSH2 0xB51 SWAP1 PUSH2 0xFEB JUMP JUMPDEST PUSH1 0x40 MLOAD DUP1 SWAP2 SUB SWAP1 REVERT JUMPDEST DUP2 PUSH0 DUP1 CALLER PUSH20 0xFFFFFFFFFFFFFFFFFFFFFFFFFFFFFFFFFFFFFFFF AND PUSH20 0xFFFFFFFFFFFFFFFFFFFFFFFFFFFFFFFFFFFFFFFF AND DUP2 MSTORE PUSH1 0x20 ADD SWAP1 DUP2 MSTORE PUSH1 0x20 ADD PUSH0 KECCAK256 PUSH0 DUP6 PUSH20 0xFFFFFFFFFFFFFFFFFFFFFFFFFFFFFFFFFFFFFFFF AND PUSH20 0xFFFFFFFFFFFFFFFFFFFFFFFFFFFFFFFFFFFFFFFF AND DUP2 MSTORE PUSH1 0x20 ADD SWAP1 DUP2 MSTORE PUSH1 0x20 ADD PUSH0 KECCAK256 PUSH0 DUP3 DUP3 SLOAD PUSH2 0xBE0 SWAP2 SWAP1 PUSH2 0x11A1 JUMP JUMPDEST SWAP3 POP POP DUP2 SWAP1 SSTORE POP PUSH32 0x5B6B431D4476A211BB7D41C20D1AAB9AE2321DEEE0D20BE3D9FC9B1093FA6E3D DUP3 PUSH1 0x40 MLOAD PUSH2 0xC16 SWAP2 SWAP1 PUSH2 0xCFB JUMP JUMPDEST PUSH1 0x40 MLOAD DUP1 SWAP2 SUB SWAP1 LOG1 POP POP POP JUMP JUMPDEST PUSH0 PUSH1 0x20 MSTORE DUP2 PUSH0 MSTORE PUSH1 0x40 PUSH0 KECCAK256 PUSH1 0x20 MSTORE DUP1 PUSH0 MSTORE PUSH1 0x40 PUSH0 KECCAK256 PUSH0 SWAP2 POP SWAP2 POP POP SLOAD DUP2 JUMP JUMPDEST PUSH32 0x5AC89764E448864D40F43667A27DAFA4B7BA1FADC9B1995F7A9BA1C86B2A8D9E CALLER CALLVALUE PUSH1 0x40 MLOAD PUSH2 0xC73 SWAP3 SWAP2 SWAP1 PUSH2 0xCD4 JUMP JUMPDEST PUSH1 0x40 MLOAD DUP1 SWAP2 SUB SWAP1 LOG1 JUMP JUMPDEST PUSH0 PUSH20 0xFFFFFFFFFFFFFFFFFFFFFFFFFFFFFFFFFFFFFFFF DUP3 AND SWAP1 POP SWAP2 SWAP1 POP JUMP JUMPDEST PUSH0 PUSH2 0xCA6 DUP3 PUSH2 0xC7D JUMP JUMPDEST SWAP1 POP SWAP2 SWAP1 POP JUMP JUMPDEST PUSH2 0xCB6 DUP2 PUSH2 0xC9C JUMP JUMPDEST DUP3 MSTORE POP POP JUMP JUMPDEST PUSH0 DUP2 SWAP1 POP SWAP2 SWAP1 POP JUMP JUMPDEST PUSH2 0xCCE DUP2 PUSH2 0xCBC JUMP JUMPDEST DUP3 MSTORE POP POP JUMP JUMPDEST PUSH0 PUSH1 0x40 DUP3 ADD SWAP1 POP PUSH2 0xCE7 PUSH0 DUP4 ADD DUP6 PUSH2 0xCAD JUMP JUMPDEST PUSH2 0xCF4 PUSH1 0x20 DUP4 ADD DUP5 PUSH2 0xCC5 JUMP JUMPDEST SWAP4 SWAP3 POP POP POP JUMP JUMPDEST PUSH0 PUSH1 0x20 DUP3 ADD SWAP1 POP PUSH2 0xD0E PUSH0 DUP4 ADD DUP5 PUSH2 0xCC5 JUMP JUMPDEST SWAP3 SWAP2 POP POP JUMP JUMPDEST PUSH0 DUP1 REVERT JUMPDEST PUSH2 0xD21 DUP2 PUSH2 0xC9C JUMP JUMPDEST DUP2 EQ PUSH2 0xD2B JUMPI PUSH0 DUP1 REVERT JUMPDEST POP JUMP JUMPDEST PUSH0 DUP2 CALLDATALOAD SWAP1 POP PUSH2 0xD3C DUP2 PUSH2 0xD18 JUMP JUMPDEST SWAP3 SWAP2 POP POP JUMP JUMPDEST PUSH2 0xD4B DUP2 PUSH2 0xCBC JUMP JUMPDEST DUP2 EQ PUSH2 0xD55 JUMPI PUSH0 DUP1 REVERT JUMPDEST POP JUMP JUMPDEST PUSH0 DUP2 CALLDATALOAD SWAP1 POP PUSH2 0xD66 DUP2 PUSH2 0xD42 JUMP JUMPDEST SWAP3 SWAP2 POP POP JUMP JUMPDEST PUSH0 DUP1 PUSH1 0x40 DUP4 DUP6 SUB SLT ISZERO PUSH2 0xD82 JUMPI PUSH2 0xD81 PUSH2 0xD14 JUMP JUMPDEST JUMPDEST PUSH0 PUSH2 0xD8F DUP6 DUP3 DUP7 ADD PUSH2 0xD2E JUMP JUMPDEST SWAP3 POP POP PUSH1 0x20 PUSH2 0xDA0 DUP6 DUP3 DUP7 ADD PUSH2 0xD58 JUMP JUMPDEST SWAP2 POP POP SWAP3 POP SWAP3 SWAP1 POP JUMP JUMPDEST PUSH0 PUSH1 0x20 DUP3 DUP5 SUB SLT ISZERO PUSH2 0xDBF JUMPI PUSH2 0xDBE PUSH2 0xD14 JUMP JUMPDEST JUMPDEST PUSH0 PUSH2 0xDCC DUP5 DUP3 DUP6 ADD PUSH2 0xD58 JUMP JUMPDEST SWAP2 POP POP SWAP3 SWAP2 POP POP JUMP JUMPDEST PUSH0 PUSH1 0x20 DUP3 ADD SWAP1 POP PUSH2 0xDE8 PUSH0 DUP4 ADD DUP5 PUSH2 0xCAD JUMP JUMPDEST SWAP3 SWAP2 POP POP JUMP JUMPDEST PUSH0 DUP1 PUSH1 0x40 DUP4 DUP6 SUB SLT ISZERO PUSH2 0xE04 JUMPI PUSH2 0xE03 PUSH2 0xD14 JUMP JUMPDEST JUMPDEST PUSH0 PUSH2 0xE11 DUP6 DUP3 DUP7 ADD PUSH2 0xD2E JUMP JUMPDEST SWAP3 POP POP PUSH1 0x20 PUSH2 0xE22 DUP6 DUP3 DUP7 ADD PUSH2 0xD2E JUMP JUMPDEST SWAP2 POP POP SWAP3 POP SWAP3 SWAP1 POP JUMP JUMPDEST PUSH0 DUP3 DUP3 MSTORE PUSH1 0x20 DUP3 ADD SWAP1 POP SWAP3 SWAP2 POP POP JUMP JUMPDEST PUSH32 0x496E76616C696420746F6B656E20616464726573730000000000000000000000 PUSH0 DUP3 ADD MSTORE POP JUMP JUMPDEST PUSH0 PUSH2 0xE70 PUSH1 0x15 DUP4 PUSH2 0xE2C JUMP JUMPDEST SWAP2 POP PUSH2 0xE7B DUP3 PUSH2 0xE3C JUMP JUMPDEST PUSH1 0x20 DUP3 ADD SWAP1 POP SWAP2 SWAP1 POP JUMP JUMPDEST PUSH0 PUSH1 0x20 DUP3 ADD SWAP1 POP DUP2 DUP2 SUB PUSH0 DUP4 ADD MSTORE PUSH2 0xE9D DUP2 PUSH2 0xE64 JUMP JUMPDEST SWAP1 POP SWAP2 SWAP1 POP JUMP JUMPDEST PUSH32 0x496E76616C696420616D6F756E74000000000000000000000000000000000000 PUSH0 DUP3 ADD MSTORE POP JUMP JUMPDEST PUSH0 PUSH2 0xED8 PUSH1 0xE DUP4 PUSH2 0xE2C JUMP JUMPDEST SWAP2 POP PUSH2 0xEE3 DUP3 PUSH2 0xEA4 JUMP JUMPDEST PUSH1 0x20 DUP3 ADD SWAP1 POP SWAP2 SWAP1 POP JUMP JUMPDEST PUSH0 PUSH1 0x20 DUP3 ADD SWAP1 POP DUP2 DUP2 SUB PUSH0 DUP4 ADD MSTORE PUSH2 0xF05 DUP2 PUSH2 0xECC JUMP JUMPDEST SWAP1 POP SWAP2 SWAP1 POP JUMP JUMPDEST PUSH0 PUSH1 0x60 DUP3 ADD SWAP1 POP PUSH2 0xF1F PUSH0 DUP4 ADD DUP7 PUSH2 0xCAD JUMP JUMPDEST PUSH2 0xF2C PUSH1 0x20 DUP4 ADD DUP6 PUSH2 0xCAD JUMP JUMPDEST PUSH2 0xF39 PUSH1 0x40 DUP4 ADD DUP5 PUSH2 0xCC5 JUMP JUMPDEST SWAP5 SWAP4 POP POP POP POP JUMP JUMPDEST PUSH0 DUP2 ISZERO ISZERO SWAP1 POP SWAP2 SWAP1 POP JUMP JUMPDEST PUSH2 0xF55 DUP2 PUSH2 0xF41 JUMP JUMPDEST DUP2 EQ PUSH2 0xF5F JUMPI PUSH0 DUP1 REVERT JUMPDEST POP JUMP JUMPDEST PUSH0 DUP2 MLOAD SWAP1 POP PUSH2 0xF70 DUP2 PUSH2 0xF4C JUMP JUMPDEST SWAP3 SWAP2 POP POP JUMP JUMPDEST PUSH0 PUSH1 0x20 DUP3 DUP5 SUB SLT ISZERO PUSH2 0xF8B JUMPI PUSH2 0xF8A PUSH2 0xD14 JUMP JUMPDEST JUMPDEST PUSH0 PUSH2 0xF98 DUP5 DUP3 DUP6 ADD PUSH2 0xF62 JUMP JUMPDEST SWAP2 POP POP SWAP3 SWAP2 POP POP JUMP JUMPDEST PUSH32 0x546F6B656E207472616E73666572206661696C65640000000000000000000000 PUSH0 DUP3 ADD MSTORE POP JUMP JUMPDEST PUSH0 PUSH2 0xFD5 PUSH1 0x15 DUP4 PUSH2 0xE2C JUMP JUMPDEST SWAP2 POP PUSH2 0xFE0 DUP3 PUSH2 0xFA1 JUMP JUMPDEST PUSH1 0x20 DUP3 ADD SWAP1 POP SWAP2 SWAP1 POP JUMP JUMPDEST PUSH0 PUSH1 0x20 DUP3 ADD SWAP1 POP DUP2 DUP2 SUB PUSH0 DUP4 ADD MSTORE PUSH2 0x1002 DUP2 PUSH2 0xFC9 JUMP JUMPDEST SWAP1 POP SWAP2 SWAP1 POP JUMP JUMPDEST PUSH32 0x4E487B7100000000000000000000000000000000000000000000000000000000 PUSH0 MSTORE PUSH1 0x11 PUSH1 0x4 MSTORE PUSH1 0x24 PUSH0 REVERT JUMPDEST PUSH0 PUSH2 0x1040 DUP3 PUSH2 0xCBC JUMP JUMPDEST SWAP2 POP PUSH2 0x104B DUP4 PUSH2 0xCBC JUMP JUMPDEST SWAP3 POP DUP3 DUP3 ADD SWAP1 POP DUP1 DUP3 GT ISZERO PUSH2 0x1063 JUMPI PUSH2 0x1062 PUSH2 0x1009 JUMP JUMPDEST JUMPDEST SWAP3 SWAP2 POP POP JUMP JUMPDEST PUSH32 0x4E6F74204F776E65720000000000000000000000000000000000000000000000 PUSH0 DUP3 ADD MSTORE POP JUMP JUMPDEST PUSH0 PUSH2 0x109D PUSH1 0x9 DUP4 PUSH2 0xE2C JUMP JUMPDEST SWAP2 POP PUSH2 0x10A8 DUP3 PUSH2 0x1069 JUMP JUMPDEST PUSH1 0x20 DUP3 ADD SWAP1 POP SWAP2 SWAP1 POP JUMP JUMPDEST PUSH0 PUSH1 0x20 DUP3 ADD SWAP1 POP DUP2 DUP2 SUB PUSH0 DUP4 ADD MSTORE PUSH2 0x10CA DUP2 PUSH2 0x1091 JUMP JUMPDEST SWAP1 POP SWAP2 SWAP1 POP JUMP JUMPDEST PUSH32 0x696E73756666696369656E742062616C616E6365000000000000000000000000 PUSH0 DUP3 ADD MSTORE POP JUMP JUMPDEST PUSH0 PUSH2 0x1105 PUSH1 0x14 DUP4 PUSH2 0xE2C JUMP JUMPDEST SWAP2 POP PUSH2 0x1110 DUP3 PUSH2 0x10D1 JUMP JUMPDEST PUSH1 0x20 DUP3 ADD SWAP1 POP SWAP2 SWAP1 POP JUMP JUMPDEST PUSH0 PUSH1 0x20 DUP3 ADD SWAP1 POP DUP2 DUP2 SUB PUSH0 DUP4 ADD MSTORE PUSH2 0x1132 DUP2 PUSH2 0x10F9 JUMP JUMPDEST SWAP1 POP SWAP2 SWAP1 POP JUMP JUMPDEST PUSH32 0x6F6E6C79206F776E65722063616E207769746864726177000000000000000000 PUSH0 DUP3 ADD MSTORE POP JUMP JUMPDEST PUSH0 PUSH2 0x116D PUSH1 0x17 DUP4 PUSH2 0xE2C JUMP JUMPDEST SWAP2 POP PUSH2 0x1178 DUP3 PUSH2 0x1139 JUMP JUMPDEST PUSH1 0x20 DUP3 ADD SWAP1 POP SWAP2 SWAP1 POP JUMP JUMPDEST PUSH0 PUSH1 0x20 DUP3 ADD SWAP1 POP DUP2 DUP2 SUB PUSH0 DUP4 ADD MSTORE PUSH2 0x119A DUP2 PUSH2 0x1161 JUMP JUMPDEST SWAP1 POP SWAP2 SWAP1 POP JUMP JUMPDEST PUSH0 PUSH2 0x11AB DUP3 PUSH2 0xCBC JUMP JUMPDEST SWAP2 POP PUSH2 0x11B6 DUP4 PUSH2 0xCBC JUMP JUMPDEST SWAP3 POP DUP3 DUP3 SUB SWAP1 POP DUP2 DUP2 GT ISZERO PUSH2 0x11CE JUMPI PUSH2 0x11CD PUSH2 0x1009 JUMP JUMPDEST JUMPDEST SWAP3 SWAP2 POP POP JUMP INVALID LOG2 PUSH5 0x6970667358 0x22 SLT KECCAK256 0xB9 0xE7 KECCAK256 PUSH30 0xAFA8D3434DBF987764A8C48B4FAFA608A2A77E6BDB875E84599CA5916473 PUSH16 0x6C634300081A00330000000000000000 "
				},
				"gasEstimates": {
					"creation": {
						"codeDepositCost": "923600",
						"executionCost": "infinite",
						"totalCost": "infinite"
					},
					"external": {
						"balances(address,address)": "infinite",
						"deposit()": "1799",
						"depositERC20Token(address,uint256)": "infinite",
						"depositERC721Token(address,uint256)": "infinite",
						"getBalance()": "335",
						"owner()": "infinite",
						"withdraw(uint256)": "infinite",
						"withdrawERC20Token(address,uint256)": "infinite",
						"withdrawERC721Token(address,uint256)": "infinite"
					}
				},
				"methodIdentifiers": {
					"balances(address,address)": "c23f001f",
					"deposit()": "d0e30db0",
					"depositERC20Token(address,uint256)": "2039d9fd",
					"depositERC721Token(address,uint256)": "28bedb51",
					"getBalance()": "12065fe0",
					"owner()": "8da5cb5b",
					"withdraw(uint256)": "2e1a7d4d",
					"withdrawERC20Token(address,uint256)": "928d81c1",
					"withdrawERC721Token(address,uint256)": "3aaed7b9"
				}
			},
			"storageLayout": {
				"storage": [
					{
						"astId": 3419,
						"contract": "level1/project_train/Bank.sol:Bank",
						"label": "balances",
						"offset": 0,
						"slot": "0",
						"type": "t_mapping(t_address,t_mapping(t_address,t_uint256))"
					}
				],
				"types": {
					"t_address": {
						"encoding": "inplace",
						"label": "address",
						"numberOfBytes": "20"
					},
					"t_mapping(t_address,t_mapping(t_address,t_uint256))": {
						"encoding": "mapping",
						"key": "t_address",
						"label": "mapping(address => mapping(address => uint256))",
						"numberOfBytes": "32",
						"value": "t_mapping(t_address,t_uint256)"
					},
					"t_mapping(t_address,t_uint256)": {
						"encoding": "mapping",
						"key": "t_address",
						"label": "mapping(address => uint256)",
						"numberOfBytes": "32",
						"value": "t_uint256"
					},
					"t_uint256": {
						"encoding": "inplace",
						"label": "uint256",
						"numberOfBytes": "32"
					}
				}
			},
			"userdoc": {
				"kind": "user",
				"methods": {},
				"version": 1
			}
		}
	}
}